{
  "contractName": "IoTeXDID",
  "abi": [
    {
      "constant": false,
      "inputs": [
        {
          "name": "hash",
          "type": "bytes32"
        },
        {
          "name": "uri",
          "type": "string"
        }
      ],
      "name": "createDID",
      "outputs": [
        {
          "name": "",
          "type": "string"
        }
      ],
      "payable": false,
      "stateMutability": "nonpayable",
      "type": "function"
    },
    {
      "constant": false,
      "inputs": [
        {
          "name": "hash",
          "type": "bytes32"
        }
      ],
      "name": "updateHash",
      "outputs": [],
      "payable": false,
      "stateMutability": "nonpayable",
      "type": "function"
    },
    {
      "constant": false,
      "inputs": [
        {
          "name": "uri",
          "type": "string"
        }
      ],
      "name": "updateURI",
      "outputs": [],
      "payable": false,
      "stateMutability": "nonpayable",
      "type": "function"
    },
    {
      "constant": false,
      "inputs": [],
      "name": "deleteDID",
      "outputs": [],
      "payable": false,
      "stateMutability": "nonpayable",
      "type": "function"
    },
    {
      "constant": true,
      "inputs": [
        {
          "name": "did",
          "type": "string"
        }
      ],
      "name": "getHash",
      "outputs": [
        {
          "name": "",
          "type": "bytes32"
        }
      ],
      "payable": false,
      "stateMutability": "view",
      "type": "function"
    },
    {
      "constant": true,
      "inputs": [
        {
          "name": "did",
          "type": "string"
        }
      ],
      "name": "getURI",
      "outputs": [
        {
          "name": "",
          "type": "string"
        }
      ],
      "payable": false,
      "stateMutability": "view",
      "type": "function"
    },
    {
      "constant": true,
      "inputs": [
        {
          "name": "value",
          "type": "bytes32"
        }
      ],
      "name": "getHexString",
      "outputs": [
        {
          "name": "",
          "type": "string"
        }
      ],
      "payable": false,
      "stateMutability": "pure",
      "type": "function"
    }
  ],
  "bytecode": "0x608060405234801561001057600080fd5b50611422806100206000396000f300608060405260043610610083576000357c0100000000000000000000000000000000000000000000000000000000900463ffffffff168063016f5a7f14610088578063390783501461009f578063438114d0146101495780635b6beeb91461017a57806393ff5d3e146101ff578063c30f4a5a146102e1578063c5996f411461034a575b600080fd5b34801561009457600080fd5b5061009d61043a565b005b3480156100ab57600080fd5b506100ce60048036038101908080356000191690602001909291905050506105c0565b6040518080602001828103825283818151815260200191508051906020019080838360005b8381101561010e5780820151818401526020810190506100f3565b50505050905090810190601f16801561013b5780820380516001836020036101000a031916815260200191505b509250505060405180910390f35b34801561015557600080fd5b5061017860048036038101908080356000191690602001909291905050506108c0565b005b34801561018657600080fd5b506101e1600480360381019080803590602001908201803590602001908080601f0160208091040260200160405190810160405280939291908181526020018383808284378201915050505050509192919290505050610a38565b60405180826000191660001916815260200191505060405180910390f35b34801561020b57600080fd5b50610266600480360381019080803590602001908201803590602001908080601f0160208091040260200160405190810160405280939291908181526020018383808284378201915050505050509192919290505050610b9f565b6040518080602001828103825283818151815260200191508051906020019080838360005b838110156102a657808201518184015260208101905061028b565b50505050905090810190601f1680156102d35780820380516001836020036101000a031916815260200191505b509250505060405180910390f35b3480156102ed57600080fd5b50610348600480360381019080803590602001908201803590602001908080601f0160208091040260200160405190810160405280939291908181526020018383808284378201915050505050509192919290505050610d9f565b005b34801561035657600080fd5b506103bf6004803603810190808035600019169060200190929190803590602001908201803590602001908080601f0160208091040260200160405190810160405280939291908181526020018383808284378201915050505050509192919290505050610f23565b6040518080602001828103825283818151815260200191508051906020019080838360005b838110156103ff5780820151818401526020810190506103e4565b50505050905090810190601f16801561042c5780820380516001836020036101000a031916815260200191505b509250505060405180910390f35b6000610444611109565b6040518082805190602001908083835b6020831015156104795780518252602082019150602081019050602083039250610454565b6001836020036101000a038019825116818451168082178552505050505050905001915050908152602001604051809103902060000160009054906101000a900460ff161515610531576040517f08c379a000000000000000000000000000000000000000000000000000000000815260040180806020018281038252600f8152602001807f6e6f74206120646964206f776e6572000000000000000000000000000000000081525060200191505060405180910390fd5b60008061053c611109565b6040518082805190602001908083835b602083101515610571578051825260208201915060208101905060208303925061054c565b6001836020036101000a038019825116818451168082178552505050505050905001915050908152602001604051809103902060000160006101000a81548160ff021916908315150217905550565b6060806060806000604080519080825280601f01601f1916602001820160405280156105fb5781602001602082028038833980820191505090505b5093506040805190810160405280601081526020017f30313233343536373839616263646566000000000000000000000000000000008152509250829150600090505b60208160ff1610156108b45781600460f07f010000000000000000000000000000000000000000000000000000000000000002888460ff1660208110151561068257fe5b1a7f010000000000000000000000000000000000000000000000000000000000000002167effffffffffffffffffffffffffffffffffffffffffffffffffffffffffffff19169060020a90047f010000000000000000000000000000000000000000000000000000000000000090048151811015156106fd57fe5b9060200101517f010000000000000000000000000000000000000000000000000000000000000090047f010000000000000000000000000000000000000000000000000000000000000002846002830260ff1681518110151561075c57fe5b9060200101907effffffffffffffffffffffffffffffffffffffffffffffffffffffffffffff1916908160001a90535081600f7f010000000000000000000000000000000000000000000000000000000000000002878360ff166020811015156107c257fe5b1a7f010000000000000000000000000000000000000000000000000000000000000002167f0100000000000000000000000000000000000000000000000000000000000000900481518110151561081557fe5b9060200101517f010000000000000000000000000000000000000000000000000000000000000090047f010000000000000000000000000000000000000000000000000000000000000002846001600284020160ff1681518110151561087757fe5b9060200101907effffffffffffffffffffffffffffffffffffffffffffffffffffffffffffff1916908160001a905350808060010191505061063e565b83945050505050919050565b60006108ca611109565b6040518082805190602001908083835b6020831015156108ff57805182526020820191506020810190506020830392506108da565b6001836020036101000a038019825116818451168082178552505050505050905001915050908152602001604051809103902060000160009054906101000a900460ff1615156109b7576040517f08c379a000000000000000000000000000000000000000000000000000000000815260040180806020018281038252600f8152602001807f6e6f74206120646964206f776e6572000000000000000000000000000000000081525060200191505060405180910390fd5b8060006109c2611109565b6040518082805190602001908083835b6020831015156109f757805182526020820191506020810190506020830392506109d2565b6001836020036101000a0380198251168184511680821785525050505050509050019150509081526020016040518091039020600101816000191690555050565b600080826040518082805190602001908083835b602083101515610a715780518252602082019150602081019050602083039250610a4c565b6001836020036101000a038019825116818451168082178552505050505050905001915050908152602001604051809103902060000160009054906101000a900460ff161515610b29576040517f08c379a00000000000000000000000000000000000000000000000000000000081526004018080602001828103825260128152602001807f64696420646f6573206e6f74206578697374000000000000000000000000000081525060200191505060405180910390fd5b6000826040518082805190602001908083835b602083101515610b615780518252602082019150602081019050602083039250610b3c565b6001836020036101000a0380198251168184511680821785525050505050509050019150509081526020016040518091039020600101549050919050565b60606000826040518082805190602001908083835b602083101515610bd95780518252602082019150602081019050602083039250610bb4565b6001836020036101000a038019825116818451168082178552505050505050905001915050908152602001604051809103902060000160009054906101000a900460ff161515610c91576040517f08c379a00000000000000000000000000000000000000000000000000000000081526004018080602001828103825260128152602001807f64696420646f6573206e6f74206578697374000000000000000000000000000081525060200191505060405180910390fd5b6000826040518082805190602001908083835b602083101515610cc95780518252602082019150602081019050602083039250610ca4565b6001836020036101000a03801982511681845116808217855250505050505090500191505090815260200160405180910390206002018054600181600116156101000203166002900480601f016020809104026020016040519081016040528092919081815260200182805460018160011615610100020316600290048015610d935780601f10610d6857610100808354040283529160200191610d93565b820191906000526020600020905b815481529060010190602001808311610d7657829003601f168201915b50505050509050919050565b6000610da9611109565b6040518082805190602001908083835b602083101515610dde5780518252602082019150602081019050602083039250610db9565b6001836020036101000a038019825116818451168082178552505050505050905001915050908152602001604051809103902060000160009054906101000a900460ff161515610e96576040517f08c379a000000000000000000000000000000000000000000000000000000000815260040180806020018281038252600f8152602001807f6e6f74206120646964206f776e6572000000000000000000000000000000000081525060200191505060405180910390fd5b806000610ea1611109565b6040518082805190602001908083835b602083101515610ed65780518252602082019150602081019050602083039250610eb1565b6001836020036101000a03801982511681845116808217855250505050505090500191505090815260200160405180910390206002019080519060200190610f1f9291906112d1565b5050565b606080610f2e611109565b90506000816040518082805190602001908083835b602083101515610f685780518252602082019150602081019050602083039250610f43565b6001836020036101000a038019825116818451168082178552505050505050905001915050908152602001604051809103902060000160009054906101000a900460ff16151515611021576040517f08c379a00000000000000000000000000000000000000000000000000000000081526004018080602001828103825260128152602001807f64696420616c726561647920657869737473000000000000000000000000000081525060200191505060405180910390fd5b60606040519081016040528060011515815260200185600019168152602001848152506000826040518082805190602001908083835b60208310151561107c5780518252602082019150602081019050602083039250611057565b6001836020036101000a038019825116818451168082178552505050505050905001915050908152602001604051809103902060008201518160000160006101000a81548160ff0219169083151502179055506020820151816001019060001916905560408201518160020190805190602001906110fb929190611351565b509050508091505092915050565b6060600033604051602001808273ffffffffffffffffffffffffffffffffffffffff1673ffffffffffffffffffffffffffffffffffffffff166c010000000000000000000000000281526014019150506040516020818303038152906040526040518082805190602001908083835b60208310151561119d5780518252602082019150602081019050602083039250611178565b6001836020036101000a038019825116818451168082178552505050505050905001915050604051809103902090506040805190810160405280600781526020017f6469643a696f3a0000000000000000000000000000000000000000000000000081525061120b826105c0565b6040516020018083805190602001908083835b602083101515611243578051825260208201915060208101905060208303925061121e565b6001836020036101000a03801982511681845116808217855250505050505090500182805190602001908083835b6020831015156112965780518252602082019150602081019050602083039250611271565b6001836020036101000a0380198251168184511680821785525050505050509050019250505060405160208183030381529060405291505090565b828054600181600116156101000203166002900490600052602060002090601f016020900481019282601f1061131257805160ff1916838001178555611340565b82800160010185558215611340579182015b8281111561133f578251825591602001919060010190611324565b5b50905061134d91906113d1565b5090565b828054600181600116156101000203166002900490600052602060002090601f016020900481019282601f1061139257805160ff19168380011785556113c0565b828001600101855582156113c0579182015b828111156113bf5782518255916020019190600101906113a4565b5b5090506113cd91906113d1565b5090565b6113f391905b808211156113ef5760008160009055506001016113d7565b5090565b905600a165627a7a723058207879b877082d07ae50aff7439fb12d0e32139b069a411cb71f5b0518be2f68be0029",
  "source": "pragma solidity ^0.4.24;\n\ncontract IoTeXDID {\n    modifier onlyDIDOwner() {\n        require(dids[generateDIDString()].exist, \"not a did owner\");\n        _;\n    }\n\n    string constant didPrefix = \"did:io:\";\n    struct DID {\n        bool exist;\n        bytes32 hash;\n        string uri;\n    }\n    mapping(string => DID) dids;\n\n    function createDID(bytes32 hash, string uri) public returns (string) {\n        string memory resultDID = generateDIDString();\n        require(!dids[resultDID].exist, \"did already exists\");\n        dids[resultDID] = DID(true, hash, uri);\n        return resultDID;\n    }\n\n    function updateHash(bytes32 hash) public onlyDIDOwner {\n        dids[generateDIDString()].hash = hash;\n    }\n\n    function updateURI(string uri) public onlyDIDOwner {\n        dids[generateDIDString()].uri = uri;\n    }\n\n    function deleteDID() public onlyDIDOwner {\n        dids[generateDIDString()].exist = false;\n    }\n\n    function getHash(string did) public view returns (bytes32) {\n        require(dids[did].exist, \"did does not exist\");\n        return dids[did].hash;\n    }\n\n    function getURI(string did) public view returns (string) {\n        require(dids[did].exist, \"did does not exist\");\n        return dids[did].uri;\n    }\n\n    function getHexString(bytes32 value) public pure returns (string) {\n        bytes memory result = new bytes(64);\n        string memory characterString = \"0123456789abcdef\";\n        bytes memory characters = bytes(characterString);\n        for (uint8 i = 0; i < 32; i++) {\n            result[i * 2] = characters[uint256((value[i] & 0xF0) >> 4)];\n            result[i * 2 + 1] = characters[uint256(value[i] & 0xF)];\n        }\n        return string(result);\n    }\n\n    function generateDIDString() private view returns (string) {\n        bytes32 hashedID = keccak256(abi.encodePacked(msg.sender));\n        return string(abi.encodePacked(didPrefix, getHexString(hashedID)));\n    }\n}\n",
  "sourcePath": "/Users/zhefengli/go/src/github.com/iotexproject/iotex-DID/smartcontracts/contracts/IoTeXDID.sol",
  "compiler": {
    "name": "solc",
    "version": "0.4.24+commit.e67f0147.Emscripten.clang"
  },
  "schemaVersion": "3.0.11",
  "updatedAt": "2019-08-29T19:45:49.087Z",
  "devdoc": {
    "methods": {}
  },
  "userdoc": {
    "methods": {}
  }
}