{
  "contractName": "IoTeXDID",
  "abi": [
    {
      "constant": false,
      "inputs": [
        {
          "name": "id",
          "type": "string"
        },
        {
          "name": "hash",
          "type": "bytes32"
        },
        {
          "name": "uri",
          "type": "string"
        }
      ],
      "name": "createDID",
      "outputs": [
        {
          "name": "",
          "type": "string"
        }
      ],
      "payable": false,
      "stateMutability": "nonpayable",
      "type": "function"
    },
    {
      "constant": false,
      "inputs": [
        {
          "name": "did",
          "type": "string"
        },
        {
          "name": "hash",
          "type": "bytes32"
        }
      ],
      "name": "updateHash",
      "outputs": [],
      "payable": false,
      "stateMutability": "nonpayable",
      "type": "function"
    },
    {
      "constant": false,
      "inputs": [
        {
          "name": "did",
          "type": "string"
        },
        {
          "name": "uri",
          "type": "string"
        }
      ],
      "name": "updateURI",
      "outputs": [],
      "payable": false,
      "stateMutability": "nonpayable",
      "type": "function"
    },
    {
      "constant": false,
      "inputs": [
        {
          "name": "did",
          "type": "string"
        }
      ],
      "name": "deleteDID",
      "outputs": [],
      "payable": false,
      "stateMutability": "nonpayable",
      "type": "function"
    },
    {
      "constant": true,
      "inputs": [
        {
          "name": "did",
          "type": "string"
        }
      ],
      "name": "getHash",
      "outputs": [
        {
          "name": "",
          "type": "bytes32"
        }
      ],
      "payable": false,
      "stateMutability": "view",
      "type": "function"
    },
    {
      "constant": true,
      "inputs": [
        {
          "name": "did",
          "type": "string"
        }
      ],
      "name": "getURI",
      "outputs": [
        {
          "name": "",
          "type": "string"
        }
      ],
      "payable": false,
      "stateMutability": "view",
      "type": "function"
    }
  ],
  "bytecode": "0x608060405234801561001057600080fd5b5061194a806100206000396000f300608060405260043610610078576000357c0100000000000000000000000000000000000000000000000000000000900463ffffffff1680631789e2d81461007d5780633e05e0661461012c57806342e643bc146102625780635b6beeb9146102cb57806378eab45a1461035057806393ff5d3e146103c7575b600080fd5b34801561008957600080fd5b5061012a600480360381019080803590602001908201803590602001908080601f0160208091040260200160405190810160405280939291908181526020018383808284378201915050505050509192919290803590602001908201803590602001908080601f01602080910402602001604051908101604052809392919081815260200183838082843782019150505050505091929192905050506104a9565b005b34801561013857600080fd5b506101e7600480360381019080803590602001908201803590602001908080601f01602080910402602001604051908101604052809392919081815260200183838082843782019150505050505091929192908035600019169060200190929190803590602001908201803590602001908080601f01602080910402602001604051908101604052809392919081815260200183838082843782019150505050505091929192905050506106e5565b6040518080602001828103825283818151815260200191508051906020019080838360005b8381101561022757808201518184015260208101905061020c565b50505050905090810190601f1680156102545780820380516001836020036101000a031916815260200191505b509250505060405180910390f35b34801561026e57600080fd5b506102c9600480360381019080803590602001908201803590602001908080601f016020809104026020016040519081016040528093929190818152602001838380828437820191505050505050919291929050505061095d565b005b3480156102d757600080fd5b50610332600480360381019080803590602001908201803590602001908080601f0160208091040260200160405190810160405280939291908181526020018383808284378201915050505050509192919290505050610b9b565b60405180826000191660001916815260200191505060405180910390f35b34801561035c57600080fd5b506103c5600480360381019080803590602001908201803590602001908080601f01602080910402602001604051908101604052809392919081815260200183838082843782019150505050505091929192908035600019169060200190929190505050610d02565b005b3480156103d357600080fd5b5061042e600480360381019080803590602001908201803590602001908080601f0160208091040260200160405190810160405280939291908181526020018383808284378201915050505050509192919290505050610f32565b6040518080602001828103825283818151815260200191508051906020019080838360005b8381101561046e578082015181840152602081019050610453565b50505050905090810190601f16801561049b5780820380516001836020036101000a031916815260200191505b509250505060405180910390f35b8160606104b4611132565b9050600082511115610565576104ca8282611238565b1515610564576040517f08c379a00000000000000000000000000000000000000000000000000000000081526004018080602001828103825260218152602001807f63616c6c657220646f6573206e6f74206f776e2074686520676976656e20646981526020017f640000000000000000000000000000000000000000000000000000000000000081525060400191505060405180910390fd5b5b6000816040518082805190602001908083835b60208310151561059d5780518252602082019150602081019050602083039250610578565b6001836020036101000a038019825116818451168082178552505050505050905001915050908152602001604051809103902060000160009054906101000a900460ff161515610655576040517f08c379a00000000000000000000000000000000000000000000000000000000081526004018080602001828103825260198152602001807f63616c6c6572206973206e6f74206120646964206f776e65720000000000000081525060200191505060405180910390fd5b826000610660611132565b6040518082805190602001908083835b6020831015156106955780518252602082019150602081019050602083039250610670565b6001836020036101000a038019825116818451168082178552505050505050905001915050908152602001604051809103902060020190805190602001906106de9291906117f9565b5050505050565b60608060008551111561077957610704856106ff336113e9565b611238565b1515610778576040517f08c379a00000000000000000000000000000000000000000000000000000000081526004018080602001828103825260198152602001807f696420646f6573206e6f74206d617463682063726561746f720000000000000081525060200191505060405180910390fd5b5b610781611132565b90506000816040518082805190602001908083835b6020831015156107bb5780518252602082019150602081019050602083039250610796565b6001836020036101000a038019825116818451168082178552505050505050905001915050908152602001604051809103902060000160009054906101000a900460ff16151515610874576040517f08c379a00000000000000000000000000000000000000000000000000000000081526004018080602001828103825260128152602001807f64696420616c726561647920657869737473000000000000000000000000000081525060200191505060405180910390fd5b60606040519081016040528060011515815260200185600019168152602001848152506000826040518082805190602001908083835b6020831015156108cf57805182526020820191506020810190506020830392506108aa565b6001836020036101000a038019825116818451168082178552505050505050905001915050908152602001604051809103902060008201518160000160006101000a81548160ff02191690831515021790555060208201518160010190600019169055604082015181600201908051906020019061094e929190611879565b50905050809150509392505050565b806060610968611132565b9050600082511115610a195761097e8282611238565b1515610a18576040517f08c379a00000000000000000000000000000000000000000000000000000000081526004018080602001828103825260218152602001807f63616c6c657220646f6573206e6f74206f776e2074686520676976656e20646981526020017f640000000000000000000000000000000000000000000000000000000000000081525060400191505060405180910390fd5b5b6000816040518082805190602001908083835b602083101515610a515780518252602082019150602081019050602083039250610a2c565b6001836020036101000a038019825116818451168082178552505050505050905001915050908152602001604051809103902060000160009054906101000a900460ff161515610b09576040517f08c379a00000000000000000000000000000000000000000000000000000000081526004018080602001828103825260198152602001807f63616c6c6572206973206e6f74206120646964206f776e65720000000000000081525060200191505060405180910390fd5b600080610b14611132565b6040518082805190602001908083835b602083101515610b495780518252602082019150602081019050602083039250610b24565b6001836020036101000a038019825116818451168082178552505050505050905001915050908152602001604051809103902060000160006101000a81548160ff021916908315150217905550505050565b600080826040518082805190602001908083835b602083101515610bd45780518252602082019150602081019050602083039250610baf565b6001836020036101000a038019825116818451168082178552505050505050905001915050908152602001604051809103902060000160009054906101000a900460ff161515610c8c576040517f08c379a00000000000000000000000000000000000000000000000000000000081526004018080602001828103825260128152602001807f64696420646f6573206e6f74206578697374000000000000000000000000000081525060200191505060405180910390fd5b6000826040518082805190602001908083835b602083101515610cc45780518252602082019150602081019050602083039250610c9f565b6001836020036101000a0380198251168184511680821785525050505050509050019150509081526020016040518091039020600101549050919050565b816060610d0d611132565b9050600082511115610dbe57610d238282611238565b1515610dbd576040517f08c379a00000000000000000000000000000000000000000000000000000000081526004018080602001828103825260218152602001807f63616c6c657220646f6573206e6f74206f776e2074686520676976656e20646981526020017f640000000000000000000000000000000000000000000000000000000000000081525060400191505060405180910390fd5b5b6000816040518082805190602001908083835b602083101515610df65780518252602082019150602081019050602083039250610dd1565b6001836020036101000a038019825116818451168082178552505050505050905001915050908152602001604051809103902060000160009054906101000a900460ff161515610eae576040517f08c379a00000000000000000000000000000000000000000000000000000000081526004018080602001828103825260198152602001807f63616c6c6572206973206e6f74206120646964206f776e65720000000000000081525060200191505060405180910390fd5b826000610eb9611132565b6040518082805190602001908083835b602083101515610eee5780518252602082019150602081019050602083039250610ec9565b6001836020036101000a0380198251168184511680821785525050505050509050019150509081526020016040518091039020600101816000191690555050505050565b60606000826040518082805190602001908083835b602083101515610f6c5780518252602082019150602081019050602083039250610f47565b6001836020036101000a038019825116818451168082178552505050505050905001915050908152602001604051809103902060000160009054906101000a900460ff161515611024576040517f08c379a00000000000000000000000000000000000000000000000000000000081526004018080602001828103825260128152602001807f64696420646f6573206e6f74206578697374000000000000000000000000000081525060200191505060405180910390fd5b6000826040518082805190602001908083835b60208310151561105c5780518252602082019150602081019050602083039250611037565b6001836020036101000a03801982511681845116808217855250505050505090500191505090815260200160405180910390206002018054600181600116156101000203166002900480601f0160208091040260200160405190810160405280929190818152602001828054600181600116156101000203166002900480156111265780601f106110fb57610100808354040283529160200191611126565b820191906000526020600020905b81548152906001019060200180831161110957829003601f168201915b50505050509050919050565b60606040805190810160405280600781526020017f6469643a696f3a00000000000000000000000000000000000000000000000000815250611173336113e9565b6040516020018083805190602001908083835b6020831015156111ab5780518252602082019150602081019050602083039250611186565b6001836020036101000a03801982511681845116808217855250505050505090500182805190602001908083835b6020831015156111fe57805182526020820191506020810190506020830392506111d9565b6001836020036101000a03801982511681845116808217855250505050505090500192505050604051602081830303815290604052905090565b6000816040516020018082805190602001908083835b602083101515611273578051825260208201915060208101905060208303925061124e565b6001836020036101000a0380198251168184511680821785525050505050509050019150506040516020818303038152906040526040518082805190602001908083835b6020831015156112dc57805182526020820191506020810190506020830392506112b7565b6001836020036101000a038019825116818451168082178552505050505050905001915050604051809103902060001916836040516020018082805190602001908083835b6020831015156113465780518252602082019150602081019050602083039250611321565b6001836020036101000a0380198251168184511680821785525050505050509050019150506040516020818303038152906040526040518082805190602001908083835b6020831015156113af578051825260208201915060208101905060208303925061138a565b6001836020036101000a03801982511681845116808217855250505050505090500191505060405180910390206000191614905092915050565b6060600060608060008573ffffffffffffffffffffffffffffffffffffffff1660010293506040805190810160405280601081526020017f30313233343536373839616263646566000000000000000000000000000000008152509250602b6040519080825280601f01601f19166020018201604052801561147a5781602001602082028038833980820191505090505b5091507f20000000000000000000000000000000000000000000000000000000000000008260008151811015156114ad57fe5b9060200101907effffffffffffffffffffffffffffffffffffffffffffffffffffffffffffff1916908160001a9053507f300000000000000000000000000000000000000000000000000000000000000082600181518110151561150d57fe5b9060200101907effffffffffffffffffffffffffffffffffffffffffffffffffffffffffffff1916908160001a9053507f780000000000000000000000000000000000000000000000000000000000000082600281518110151561156d57fe5b9060200101907effffffffffffffffffffffffffffffffffffffffffffffffffffffffffffff1916908160001a905350600090505b60148110156117ed5782600485600c84016020811015156115bf57fe5b1a7f0100000000000000000000000000000000000000000000000000000000000000027effffffffffffffffffffffffffffffffffffffffffffffffffffffffffffff19169060020a90047f0100000000000000000000000000000000000000000000000000000000000000900481518110151561163957fe5b9060200101517f010000000000000000000000000000000000000000000000000000000000000090047f010000000000000000000000000000000000000000000000000000000000000002826002830260030181518110151561169857fe5b9060200101907effffffffffffffffffffffffffffffffffffffffffffffffffffffffffffff1916908160001a90535082600f7f01000000000000000000000000000000000000000000000000000000000000000285600c84016020811015156116fe57fe5b1a7f010000000000000000000000000000000000000000000000000000000000000002167f0100000000000000000000000000000000000000000000000000000000000000900481518110151561175157fe5b9060200101517f010000000000000000000000000000000000000000000000000000000000000090047f01000000000000000000000000000000000000000000000000000000000000000282600283026004018151811015156117b057fe5b9060200101907effffffffffffffffffffffffffffffffffffffffffffffffffffffffffffff1916908160001a90535080806001019150506115a2565b81945050505050919050565b828054600181600116156101000203166002900490600052602060002090601f016020900481019282601f1061183a57805160ff1916838001178555611868565b82800160010185558215611868579182015b8281111561186757825182559160200191906001019061184c565b5b50905061187591906118f9565b5090565b828054600181600116156101000203166002900490600052602060002090601f016020900481019282601f106118ba57805160ff19168380011785556118e8565b828001600101855582156118e8579182015b828111156118e75782518255916020019190600101906118cc565b5b5090506118f591906118f9565b5090565b61191b91905b808211156119175760008160009055506001016118ff565b5090565b905600a165627a7a723058208025818bc265a041a91c4d7b5b357c361d5ee0af7fa48aea3a563ea25f0a051e0029",
  "source": "pragma solidity ^0.4.24;\n\nimport './SelfManagedDID.sol';\n\ncontract IoTeXDID is SelfManagedDID {\n    modifier onlyDIDOwner(string didInput) {\n        string memory didString = generateDIDString();\n        if (bytes(didInput).length > 0) {\n            require(compareStrings(didInput, didString), \"caller does not own the given did\");\n        }\n        require(dids[didString].exist, \"caller is not a did owner\");\n        _;\n    }\n\n    string constant didPrefix = \"did:io:\";\n    struct DID {\n        bool exist;\n        bytes32 hash;\n        string uri;\n    }\n    mapping(string => DID) dids;\n\n    function createDID(string id, bytes32 hash, string uri) public returns (string) {\n        if (bytes(id).length > 0) {\n            require(compareStrings(id, addrToString(msg.sender)), \"id does not match creator\");\n        }\n        string memory resultDID = generateDIDString();\n        require(!dids[resultDID].exist, \"did already exists\");\n        dids[resultDID] = DID(true, hash, uri);\n        return resultDID;\n    }\n\n    function updateHash(string did, bytes32 hash) public onlyDIDOwner(did) {\n        dids[generateDIDString()].hash = hash;\n    }\n\n    function updateURI(string did, string uri) public onlyDIDOwner(did) {\n        dids[generateDIDString()].uri = uri;\n    }\n\n    function deleteDID(string did) public onlyDIDOwner(did) {\n        dids[generateDIDString()].exist = false;\n    }\n\n    function getHash(string did) public view returns (bytes32) {\n        require(dids[did].exist, \"did does not exist\");\n        return dids[did].hash;\n    }\n\n    function getURI(string did) public view returns (string) {\n        require(dids[did].exist, \"did does not exist\");\n        return dids[did].uri;\n    }\n\n    function generateDIDString() private view returns (string) {\n        return string(abi.encodePacked(didPrefix, addrToString(msg.sender)));\n    }\n\n    function addrToString(address _addr) internal pure returns(string) {\n        bytes32 value = bytes32(uint256(_addr));\n        bytes memory alphabet = \"0123456789abcdef\";\n\n        bytes memory str = new bytes(43);\n        str[0] = ' ';\n        str[1] = '0';\n        str[2] = 'x';\n        for (uint i = 0; i < 20; i++) {\n            str[3+i*2] = alphabet[uint(value[i + 12] >> 4)];\n            str[4+i*2] = alphabet[uint(value[i + 12] & 0x0f)];\n        }\n        return string(str);\n    }\n\n    function compareStrings (string a, string b) internal pure returns (bool) {\n        return (keccak256(abi.encodePacked((a))) == keccak256(abi.encodePacked((b))));\n    }\n}\n",
  "sourcePath": "/Users/zhefengli/go/src/github.com/iotexproject/iotex-DID/smartcontracts/contracts/IoTeXDID.sol",
  "compiler": {
    "name": "solc",
    "version": "0.4.24+commit.e67f0147.Emscripten.clang"
  },
  "schemaVersion": "3.0.11",
  "updatedAt": "2019-08-30T00:20:54.616Z",
  "devdoc": {
    "methods": {}
  },
  "userdoc": {
    "methods": {}
  }
}