{
  "contractName": "IoTeXDID",
  "abi": [
    {
      "constant": false,
      "inputs": [
        {
          "name": "id",
          "type": "string"
        },
        {
          "name": "hash",
          "type": "bytes32"
        },
        {
          "name": "uri",
          "type": "string"
        }
      ],
      "name": "createDID",
      "outputs": [
        {
          "name": "",
          "type": "string"
        }
      ],
      "payable": false,
      "stateMutability": "nonpayable",
      "type": "function"
    },
    {
      "constant": false,
      "inputs": [
        {
          "name": "did",
          "type": "string"
        },
        {
          "name": "hash",
          "type": "bytes32"
        }
      ],
      "name": "updateHash",
      "outputs": [],
      "payable": false,
      "stateMutability": "nonpayable",
      "type": "function"
    },
    {
      "constant": false,
      "inputs": [
        {
          "name": "did",
          "type": "string"
        },
        {
          "name": "uri",
          "type": "string"
        }
      ],
      "name": "updateURI",
      "outputs": [],
      "payable": false,
      "stateMutability": "nonpayable",
      "type": "function"
    },
    {
      "constant": false,
      "inputs": [
        {
          "name": "did",
          "type": "string"
        }
      ],
      "name": "deleteDID",
      "outputs": [],
      "payable": false,
      "stateMutability": "nonpayable",
      "type": "function"
    },
    {
      "constant": true,
      "inputs": [
        {
          "name": "did",
          "type": "string"
        }
      ],
      "name": "getHash",
      "outputs": [
        {
          "name": "",
          "type": "bytes32"
        }
      ],
      "payable": false,
      "stateMutability": "view",
      "type": "function"
    },
    {
      "constant": true,
      "inputs": [
        {
          "name": "did",
          "type": "string"
        }
      ],
      "name": "getURI",
      "outputs": [
        {
          "name": "",
          "type": "string"
        }
      ],
      "payable": false,
      "stateMutability": "view",
      "type": "function"
    },
    {
      "constant": true,
      "inputs": [
        {
          "name": "value",
          "type": "bytes32"
        }
      ],
      "name": "getHexString",
      "outputs": [
        {
          "name": "",
          "type": "string"
        }
      ],
      "payable": false,
      "stateMutability": "pure",
      "type": "function"
    }
  ],
  "bytecode": "0x608060405234801561001057600080fd5b50611974806100206000396000f300608060405260043610610083576000357c0100000000000000000000000000000000000000000000000000000000900463ffffffff1680631789e2d81461008857806339078350146101375780633e05e066146101e157806342e643bc146103175780635b6beeb91461038057806378eab45a1461040557806393ff5d3e1461047c575b600080fd5b34801561009457600080fd5b50610135600480360381019080803590602001908201803590602001908080601f0160208091040260200160405190810160405280939291908181526020018383808284378201915050505050509192919290803590602001908201803590602001908080601f016020809104026020016040519081016040528093929190818152602001838380828437820191505050505050919291929050505061055e565b005b34801561014357600080fd5b5061016660048036038101908080356000191690602001909291905050506106e3565b6040518080602001828103825283818151815260200191508051906020019080838360005b838110156101a657808201518184015260208101905061018b565b50505050905090810190601f1680156101d35780820380516001836020036101000a031916815260200191505b509250505060405180910390f35b3480156101ed57600080fd5b5061029c600480360381019080803590602001908201803590602001908080601f01602080910402602001604051908101604052809392919081815260200183838082843782019150505050505091929192908035600019169060200190929190803590602001908201803590602001908080601f01602080910402602001604051908101604052809392919081815260200183838082843782019150505050505091929192905050506109e3565b6040518080602001828103825283818151815260200191508051906020019080838360005b838110156102dc5780820151818401526020810190506102c1565b50505050905090810190601f1680156103095780820380516001836020036101000a031916815260200191505b509250505060405180910390f35b34801561032357600080fd5b5061037e600480360381019080803590602001908201803590602001908080601f0160208091040260200160405190810160405280939291908181526020018383808284378201915050505050509192919290505050610bca565b005b34801561038c57600080fd5b506103e7600480360381019080803590602001908201803590602001908080601f0160208091040260200160405190810160405280939291908181526020018383808284378201915050505050509192919290505050610d51565b60405180826000191660001916815260200191505060405180910390f35b34801561041157600080fd5b5061047a600480360381019080803590602001908201803590602001908080601f01602080910402602001604051908101604052809392919081815260200183838082843782019150505050505091929192908035600019169060200190929190505050610eb8565b005b34801561048857600080fd5b506104e3600480360381019080803590602001908201803590602001908080601f0160208091040260200160405190810160405280939291908181526020018383808284378201915050505050509192919290505050611031565b6040518080602001828103825283818151815260200191508051906020019080838360005b83811015610523578082015181840152602081019050610508565b50505050905090810190601f1680156105505780820380516001836020036101000a031916815260200191505b509250505060405180910390f35b6000610568611231565b6040518082805190602001908083835b60208310151561059d5780518252602082019150602081019050602083039250610578565b6001836020036101000a038019825116818451168082178552505050505050905001915050908152602001604051809103902060000160009054906101000a900460ff161515610655576040517f08c379a000000000000000000000000000000000000000000000000000000000815260040180806020018281038252600f8152602001807f6e6f74206120646964206f776e6572000000000000000000000000000000000081525060200191505060405180910390fd5b806000610660611231565b6040518082805190602001908083835b6020831015156106955780518252602082019150602081019050602083039250610670565b6001836020036101000a038019825116818451168082178552505050505050905001915050908152602001604051809103902060020190805190602001906106de929190611823565b505050565b6060806060806000604080519080825280601f01601f19166020018201604052801561071e5781602001602082028038833980820191505090505b5093506040805190810160405280601081526020017f30313233343536373839616263646566000000000000000000000000000000008152509250829150600090505b60208160ff1610156109d75781600460f07f010000000000000000000000000000000000000000000000000000000000000002888460ff166020811015156107a557fe5b1a7f010000000000000000000000000000000000000000000000000000000000000002167effffffffffffffffffffffffffffffffffffffffffffffffffffffffffffff19169060020a90047f0100000000000000000000000000000000000000000000000000000000000000900481518110151561082057fe5b9060200101517f010000000000000000000000000000000000000000000000000000000000000090047f010000000000000000000000000000000000000000000000000000000000000002846002830260ff1681518110151561087f57fe5b9060200101907effffffffffffffffffffffffffffffffffffffffffffffffffffffffffffff1916908160001a90535081600f7f010000000000000000000000000000000000000000000000000000000000000002878360ff166020811015156108e557fe5b1a7f010000000000000000000000000000000000000000000000000000000000000002167f0100000000000000000000000000000000000000000000000000000000000000900481518110151561093857fe5b9060200101517f010000000000000000000000000000000000000000000000000000000000000090047f010000000000000000000000000000000000000000000000000000000000000002846001600284020160ff1681518110151561099a57fe5b9060200101907effffffffffffffffffffffffffffffffffffffffffffffffffffffffffffff1916908160001a9053508080600101915050610761565b83945050505050919050565b6060806109ee611231565b90506000816040518082805190602001908083835b602083101515610a285780518252602082019150602081019050602083039250610a03565b6001836020036101000a038019825116818451168082178552505050505050905001915050908152602001604051809103902060000160009054906101000a900460ff16151515610ae1576040517f08c379a00000000000000000000000000000000000000000000000000000000081526004018080602001828103825260128152602001807f64696420616c726561647920657869737473000000000000000000000000000081525060200191505060405180910390fd5b60606040519081016040528060011515815260200185600019168152602001848152506000826040518082805190602001908083835b602083101515610b3c5780518252602082019150602081019050602083039250610b17565b6001836020036101000a038019825116818451168082178552505050505050905001915050908152602001604051809103902060008201518160000160006101000a81548160ff021916908315150217905550602082015181600101906000191690556040820151816002019080519060200190610bbb9291906118a3565b50905050809150509392505050565b6000610bd4611231565b6040518082805190602001908083835b602083101515610c095780518252602082019150602081019050602083039250610be4565b6001836020036101000a038019825116818451168082178552505050505050905001915050908152602001604051809103902060000160009054906101000a900460ff161515610cc1576040517f08c379a000000000000000000000000000000000000000000000000000000000815260040180806020018281038252600f8152602001807f6e6f74206120646964206f776e6572000000000000000000000000000000000081525060200191505060405180910390fd5b600080610ccc611231565b6040518082805190602001908083835b602083101515610d015780518252602082019150602081019050602083039250610cdc565b6001836020036101000a038019825116818451168082178552505050505050905001915050908152602001604051809103902060000160006101000a81548160ff02191690831515021790555050565b600080826040518082805190602001908083835b602083101515610d8a5780518252602082019150602081019050602083039250610d65565b6001836020036101000a038019825116818451168082178552505050505050905001915050908152602001604051809103902060000160009054906101000a900460ff161515610e42576040517f08c379a00000000000000000000000000000000000000000000000000000000081526004018080602001828103825260128152602001807f64696420646f6573206e6f74206578697374000000000000000000000000000081525060200191505060405180910390fd5b6000826040518082805190602001908083835b602083101515610e7a5780518252602082019150602081019050602083039250610e55565b6001836020036101000a0380198251168184511680821785525050505050509050019150509081526020016040518091039020600101549050919050565b6000610ec2611231565b6040518082805190602001908083835b602083101515610ef75780518252602082019150602081019050602083039250610ed2565b6001836020036101000a038019825116818451168082178552505050505050905001915050908152602001604051809103902060000160009054906101000a900460ff161515610faf576040517f08c379a000000000000000000000000000000000000000000000000000000000815260040180806020018281038252600f8152602001807f6e6f74206120646964206f776e6572000000000000000000000000000000000081525060200191505060405180910390fd5b806000610fba611231565b6040518082805190602001908083835b602083101515610fef5780518252602082019150602081019050602083039250610fca565b6001836020036101000a038019825116818451168082178552505050505050905001915050908152602001604051809103902060010181600019169055505050565b60606000826040518082805190602001908083835b60208310151561106b5780518252602082019150602081019050602083039250611046565b6001836020036101000a038019825116818451168082178552505050505050905001915050908152602001604051809103902060000160009054906101000a900460ff161515611123576040517f08c379a00000000000000000000000000000000000000000000000000000000081526004018080602001828103825260128152602001807f64696420646f6573206e6f74206578697374000000000000000000000000000081525060200191505060405180910390fd5b6000826040518082805190602001908083835b60208310151561115b5780518252602082019150602081019050602083039250611136565b6001836020036101000a03801982511681845116808217855250505050505090500191505090815260200160405180910390206002018054600181600116156101000203166002900480601f0160208091040260200160405190810160405280929190818152602001828054600181600116156101000203166002900480156112255780601f106111fa57610100808354040283529160200191611225565b820191906000526020600020905b81548152906001019060200180831161120857829003601f168201915b50505050509050919050565b6060600061123e33611413565b6040516020018082805190602001908083835b6020831015156112765780518252602082019150602081019050602083039250611251565b6001836020036101000a0380198251168184511680821785525050505050509050019150506040516020818303038152906040526040518082805190602001908083835b6020831015156112df57805182526020820191506020810190506020830392506112ba565b6001836020036101000a038019825116818451168082178552505050505050905001915050604051809103902090506040805190810160405280600781526020017f6469643a696f3a0000000000000000000000000000000000000000000000000081525061134d826106e3565b6040516020018083805190602001908083835b6020831015156113855780518252602082019150602081019050602083039250611360565b6001836020036101000a03801982511681845116808217855250505050505090500182805190602001908083835b6020831015156113d857805182526020820191506020810190506020830392506113b3565b6001836020036101000a0380198251168184511680821785525050505050509050019250505060405160208183030381529060405291505090565b6060600060608060008573ffffffffffffffffffffffffffffffffffffffff1660010293506040805190810160405280601081526020017f30313233343536373839616263646566000000000000000000000000000000008152509250602b6040519080825280601f01601f1916602001820160405280156114a45781602001602082028038833980820191505090505b5091507f20000000000000000000000000000000000000000000000000000000000000008260008151811015156114d757fe5b9060200101907effffffffffffffffffffffffffffffffffffffffffffffffffffffffffffff1916908160001a9053507f300000000000000000000000000000000000000000000000000000000000000082600181518110151561153757fe5b9060200101907effffffffffffffffffffffffffffffffffffffffffffffffffffffffffffff1916908160001a9053507f780000000000000000000000000000000000000000000000000000000000000082600281518110151561159757fe5b9060200101907effffffffffffffffffffffffffffffffffffffffffffffffffffffffffffff1916908160001a905350600090505b60148110156118175782600485600c84016020811015156115e957fe5b1a7f0100000000000000000000000000000000000000000000000000000000000000027effffffffffffffffffffffffffffffffffffffffffffffffffffffffffffff19169060020a90047f0100000000000000000000000000000000000000000000000000000000000000900481518110151561166357fe5b9060200101517f010000000000000000000000000000000000000000000000000000000000000090047f01000000000000000000000000000000000000000000000000000000000000000282600283026003018151811015156116c257fe5b9060200101907effffffffffffffffffffffffffffffffffffffffffffffffffffffffffffff1916908160001a90535082600f7f01000000000000000000000000000000000000000000000000000000000000000285600c840160208110151561172857fe5b1a7f010000000000000000000000000000000000000000000000000000000000000002167f0100000000000000000000000000000000000000000000000000000000000000900481518110151561177b57fe5b9060200101517f010000000000000000000000000000000000000000000000000000000000000090047f01000000000000000000000000000000000000000000000000000000000000000282600283026004018151811015156117da57fe5b9060200101907effffffffffffffffffffffffffffffffffffffffffffffffffffffffffffff1916908160001a90535080806001019150506115cc565b81945050505050919050565b828054600181600116156101000203166002900490600052602060002090601f016020900481019282601f1061186457805160ff1916838001178555611892565b82800160010185558215611892579182015b82811115611891578251825591602001919060010190611876565b5b50905061189f9190611923565b5090565b828054600181600116156101000203166002900490600052602060002090601f016020900481019282601f106118e457805160ff1916838001178555611912565b82800160010185558215611912579182015b828111156119115782518255916020019190600101906118f6565b5b50905061191f9190611923565b5090565b61194591905b80821115611941576000816000905550600101611929565b5090565b905600a165627a7a72305820ebbd7ba68c7f2b0c9f784de58e6230dba18cea79b158c41401e88135e24263f10029",
  "source": "pragma solidity ^0.4.24;\n\nimport './SelfManagedDID.sol';\n\ncontract IoTeXDID is SelfManagedDID {\n    modifier onlyDIDOwner() {\n        require(dids[generateDIDString()].exist, \"not a did owner\");\n        _;\n    }\n\n    string constant didPrefix = \"did:io:\";\n    struct DID {\n        bool exist;\n        bytes32 hash;\n        string uri;\n    }\n    mapping(string => DID) dids;\n\n    function createDID(string id, bytes32 hash, string uri) public returns (string) {\n        string memory resultDID = generateDIDString();\n        require(!dids[resultDID].exist, \"did already exists\");\n        dids[resultDID] = DID(true, hash, uri);\n        return resultDID;\n    }\n\n    function updateHash(string did, bytes32 hash) public onlyDIDOwner {\n        dids[generateDIDString()].hash = hash;\n    }\n\n    function updateURI(string did, string uri) public onlyDIDOwner {\n        dids[generateDIDString()].uri = uri;\n    }\n\n    function deleteDID(string did) public onlyDIDOwner {\n        dids[generateDIDString()].exist = false;\n    }\n\n    function getHash(string did) public view returns (bytes32) {\n        require(dids[did].exist, \"did does not exist\");\n        return dids[did].hash;\n    }\n\n    function getURI(string did) public view returns (string) {\n        require(dids[did].exist, \"did does not exist\");\n        return dids[did].uri;\n    }\n\n    function getHexString(bytes32 value) public pure returns (string) {\n        bytes memory result = new bytes(64);\n        string memory characterString = \"0123456789abcdef\";\n        bytes memory characters = bytes(characterString);\n        for (uint8 i = 0; i < 32; i++) {\n            result[i * 2] = characters[uint256((value[i] & 0xF0) >> 4)];\n            result[i * 2 + 1] = characters[uint256(value[i] & 0xF)];\n        }\n        return string(result);\n    }\n\n    function generateDIDString() private view returns (string) {\n        bytes32 hashedID = keccak256(abi.encodePacked(addrToString(msg.sender)));\n        return string(abi.encodePacked(didPrefix, getHexString(hashedID)));\n    }\n\n    function addrToString(address _addr) internal pure returns(string) {\n        bytes32 value = bytes32(uint256(_addr));\n        bytes memory alphabet = \"0123456789abcdef\";\n\n        bytes memory str = new bytes(43);\n        str[0] = ' ';\n        str[1] = '0';\n        str[2] = 'x';\n        for (uint i = 0; i < 20; i++) {\n            str[3+i*2] = alphabet[uint(value[i + 12] >> 4)];\n            str[4+i*2] = alphabet[uint(value[i + 12] & 0x0f)];\n        }\n        return string(str);\n    }\n}\n",
  "sourcePath": "/Users/zhefengli/go/src/github.com/iotexproject/iotex-DID/smartcontracts/contracts/IoTeXDID.sol",
  "compiler": {
    "name": "solc",
    "version": "0.4.24+commit.e67f0147.Emscripten.clang"
  },
  "schemaVersion": "3.0.11",
  "updatedAt": "2019-08-29T22:59:05.702Z",
  "devdoc": {
    "methods": {}
  },
  "userdoc": {
    "methods": {}
  }
}