{
  "contractName": "IoTeXDID",
  "abi": [
    {
      "anonymous": false,
      "inputs": [
        {
          "indexed": true,
          "name": "id",
          "type": "string"
        },
        {
          "indexed": false,
          "name": "didString",
          "type": "string"
        }
      ],
      "name": "CreateDID",
      "type": "event"
    },
    {
      "anonymous": false,
      "inputs": [
        {
          "indexed": true,
          "name": "didString",
          "type": "string"
        },
        {
          "indexed": false,
          "name": "hash",
          "type": "bytes32"
        }
      ],
      "name": "UpdateHash",
      "type": "event"
    },
    {
      "anonymous": false,
      "inputs": [
        {
          "indexed": true,
          "name": "didString",
          "type": "string"
        },
        {
          "indexed": false,
          "name": "uri",
          "type": "string"
        }
      ],
      "name": "UpdateURI",
      "type": "event"
    },
    {
      "anonymous": false,
      "inputs": [
        {
          "indexed": true,
          "name": "didString",
          "type": "string"
        }
      ],
      "name": "DeleteDID",
      "type": "event"
    },
    {
      "constant": false,
      "inputs": [
        {
          "name": "id",
          "type": "string"
        },
        {
          "name": "hash",
          "type": "bytes32"
        },
        {
          "name": "uri",
          "type": "string"
        }
      ],
      "name": "createDID",
      "outputs": [],
      "payable": false,
      "stateMutability": "nonpayable",
      "type": "function"
    },
    {
      "constant": false,
      "inputs": [
        {
          "name": "did",
          "type": "string"
        },
        {
          "name": "hash",
          "type": "bytes32"
        }
      ],
      "name": "updateHash",
      "outputs": [],
      "payable": false,
      "stateMutability": "nonpayable",
      "type": "function"
    },
    {
      "constant": false,
      "inputs": [
        {
          "name": "did",
          "type": "string"
        },
        {
          "name": "uri",
          "type": "string"
        }
      ],
      "name": "updateURI",
      "outputs": [],
      "payable": false,
      "stateMutability": "nonpayable",
      "type": "function"
    },
    {
      "constant": false,
      "inputs": [
        {
          "name": "did",
          "type": "string"
        }
      ],
      "name": "deleteDID",
      "outputs": [],
      "payable": false,
      "stateMutability": "nonpayable",
      "type": "function"
    },
    {
      "constant": true,
      "inputs": [
        {
          "name": "did",
          "type": "string"
        }
      ],
      "name": "getHash",
      "outputs": [
        {
          "name": "",
          "type": "bytes32"
        }
      ],
      "payable": false,
      "stateMutability": "view",
      "type": "function"
    },
    {
      "constant": true,
      "inputs": [
        {
          "name": "did",
          "type": "string"
        }
      ],
      "name": "getURI",
      "outputs": [
        {
          "name": "",
          "type": "string"
        }
      ],
      "payable": false,
      "stateMutability": "view",
      "type": "function"
    }
  ],
  "bytecode": "0x608060405234801561001057600080fd5b50611f1d806100206000396000f300608060405260043610610078576000357c0100000000000000000000000000000000000000000000000000000000900463ffffffff1680631789e2d81461007d5780633e05e0661461012c57806342e643bc146101e95780635b6beeb91461025257806378eab45a146102d757806393ff5d3e1461034e575b600080fd5b34801561008957600080fd5b5061012a600480360381019080803590602001908201803590602001908080601f0160208091040260200160405190810160405280939291908181526020018383808284378201915050505050509192919290803590602001908201803590602001908080601f0160208091040260200160405190810160405280939291908181526020018383808284378201915050505050509192919290505050610430565b005b34801561013857600080fd5b506101e7600480360381019080803590602001908201803590602001908080601f01602080910402602001604051908101604052809392919081815260200183838082843782019150505050505091929192908035600019169060200190929190803590602001908201803590602001908080601f0160208091040260200160405190810160405280939291908181526020018383808284378201915050505050509192919290505050610772565b005b3480156101f557600080fd5b50610250600480360381019080803590602001908201803590602001908080601f0160208091040260200160405190810160405280939291908181526020018383808284378201915050505050509192919290505050610af3565b005b34801561025e57600080fd5b506102b9600480360381019080803590602001908201803590602001908080601f0160208091040260200160405190810160405280939291908181526020018383808284378201915050505050509192919290505050610dc7565b60405180826000191660001916815260200191505060405180910390f35b3480156102e357600080fd5b5061034c600480360381019080803590602001908201803590602001908080601f01602080910402602001604051908101604052809392919081815260200183838082843782019150505050505091929192908035600019169060200190929190505050610f3d565b005b34801561035a57600080fd5b506103b5600480360381019080803590602001908201803590602001908080601f0160208091040260200160405190810160405280939291908181526020018383808284378201915050505050509192919290505050611216565b6040518080602001828103825283818151815260200191508051906020019080838360005b838110156103f55780820151818401526020810190506103da565b50505050905090810190601f1680156104225780820380516001836020036101000a031916815260200191505b509250505060405180910390f35b81606061043b611423565b90506000825111156104ec576104518282611529565b15156104eb576040517f08c379a00000000000000000000000000000000000000000000000000000000081526004018080602001828103825260218152602001807f63616c6c657220646f6573206e6f74206f776e2074686520676976656e20646981526020017f640000000000000000000000000000000000000000000000000000000000000081525060400191505060405180910390fd5b5b6000816040518082805190602001908083835b60208310151561052457805182526020820191506020810190506020830392506104ff565b6001836020036101000a038019825116818451168082178552505050505050905001915050908152602001604051809103902060000160009054906101000a900460ff1615156105dc576040517f08c379a00000000000000000000000000000000000000000000000000000000081526004018080602001828103825260198152602001807f63616c6c6572206973206e6f74206120646964206f776e65720000000000000081525060200191505060405180910390fd5b8260006105e7611423565b6040518082805190602001908083835b60208310151561061c57805182526020820191506020810190506020830392506105f7565b6001836020036101000a03801982511681845116808217855250505050505090500191505090815260200160405180910390206002019080519060200190610665929190611dcc565b5061066e611423565b6040518082805190602001908083835b6020831015156106a3578051825260208201915060208101905060208303925061067e565b6001836020036101000a03801982511681845116808217855250505050505090500191505060405180910390207fa55ea16d9a68fded3c5b007d1fbba6ed1524d9354d44c66bcc54c721108586c4846040518080602001828103825283818151815260200191508051906020019080838360005b83811015610732578082015181840152602081019050610717565b50505050905090810190601f16801561075f5780820380516001836020036101000a031916815260200191505b509250505060405180910390a250505050565b6060600084511115610805576107908461078b336116ea565b611529565b1515610804576040517f08c379a00000000000000000000000000000000000000000000000000000000081526004018080602001828103825260198152602001807f696420646f6573206e6f74206d617463682063726561746f720000000000000081525060200191505060405180910390fd5b5b61080d611423565b90506000816040518082805190602001908083835b6020831015156108475780518252602082019150602081019050602083039250610822565b6001836020036101000a038019825116818451168082178552505050505050905001915050908152602001604051809103902060000160009054906101000a900460ff16151515610900576040517f08c379a00000000000000000000000000000000000000000000000000000000081526004018080602001828103825260128152602001807f64696420616c726561647920657869737473000000000000000000000000000081525060200191505060405180910390fd5b60606040519081016040528060011515815260200184600019168152602001838152506000826040518082805190602001908083835b60208310151561095b5780518252602082019150602081019050602083039250610936565b6001836020036101000a038019825116818451168082178552505050505050905001915050908152602001604051809103902060008201518160000160006101000a81548160ff0219169083151502179055506020820151816001019060001916905560408201518160020190805190602001906109da929190611e4c565b509050506109ef6109ea336116ea565b611a9a565b6040518082805190602001908083835b602083101515610a2457805182526020820191506020810190506020830392506109ff565b6001836020036101000a03801982511681845116808217855250505050505090500191505060405180910390207fedcad282d2fc969322aa68caeb2b9bf9de762094ec288a9965535b8968dca17f826040518080602001828103825283818151815260200191508051906020019080838360005b83811015610ab3578082015181840152602081019050610a98565b50505050905090810190601f168015610ae05780820380516001836020036101000a031916815260200191505b509250505060405180910390a250505050565b806060610afe611423565b9050600082511115610baf57610b148282611529565b1515610bae576040517f08c379a00000000000000000000000000000000000000000000000000000000081526004018080602001828103825260218152602001807f63616c6c657220646f6573206e6f74206f776e2074686520676976656e20646981526020017f640000000000000000000000000000000000000000000000000000000000000081525060400191505060405180910390fd5b5b6000816040518082805190602001908083835b602083101515610be75780518252602082019150602081019050602083039250610bc2565b6001836020036101000a038019825116818451168082178552505050505050905001915050908152602001604051809103902060000160009054906101000a900460ff161515610c9f576040517f08c379a00000000000000000000000000000000000000000000000000000000081526004018080602001828103825260198152602001807f63616c6c6572206973206e6f74206120646964206f776e65720000000000000081525060200191505060405180910390fd5b600080610caa611423565b6040518082805190602001908083835b602083101515610cdf5780518252602082019150602081019050602083039250610cba565b6001836020036101000a038019825116818451168082178552505050505050905001915050908152602001604051809103902060000160006101000a81548160ff021916908315150217905550610d34611423565b6040518082805190602001908083835b602083101515610d695780518252602082019150602081019050602083039250610d44565b6001836020036101000a03801982511681845116808217855250505050505090500191505060405180910390207ff8910781c5d425c8a634b0a60a6567ef96cae8b2aa97b0db44389fff2bbcc64f60405160405180910390a2505050565b60006060610dd483611a9a565b90506000816040518082805190602001908083835b602083101515610e0e5780518252602082019150602081019050602083039250610de9565b6001836020036101000a038019825116818451168082178552505050505050905001915050908152602001604051809103902060000160009054906101000a900460ff161515610ec6576040517f08c379a00000000000000000000000000000000000000000000000000000000081526004018080602001828103825260128152602001807f64696420646f6573206e6f74206578697374000000000000000000000000000081525060200191505060405180910390fd5b6000816040518082805190602001908083835b602083101515610efe5780518252602082019150602081019050602083039250610ed9565b6001836020036101000a038019825116818451168082178552505050505050905001915050908152602001604051809103902060010154915050919050565b816060610f48611423565b9050600082511115610ff957610f5e8282611529565b1515610ff8576040517f08c379a00000000000000000000000000000000000000000000000000000000081526004018080602001828103825260218152602001807f63616c6c657220646f6573206e6f74206f776e2074686520676976656e20646981526020017f640000000000000000000000000000000000000000000000000000000000000081525060400191505060405180910390fd5b5b6000816040518082805190602001908083835b602083101515611031578051825260208201915060208101905060208303925061100c565b6001836020036101000a038019825116818451168082178552505050505050905001915050908152602001604051809103902060000160009054906101000a900460ff1615156110e9576040517f08c379a00000000000000000000000000000000000000000000000000000000081526004018080602001828103825260198152602001807f63616c6c6572206973206e6f74206120646964206f776e65720000000000000081525060200191505060405180910390fd5b8260006110f4611423565b6040518082805190602001908083835b6020831015156111295780518252602082019150602081019050602083039250611104565b6001836020036101000a0380198251168184511680821785525050505050509050019150509081526020016040518091039020600101816000191690555061116f611423565b6040518082805190602001908083835b6020831015156111a4578051825260208201915060208101905060208303925061117f565b6001836020036101000a03801982511681845116808217855250505050505090500191505060405180910390207fad2d38b24c03f1f0db04b9345ca745dcf8904f27f8977599ec4769743d5e898d8460405180826000191660001916815260200191505060405180910390a250505050565b60608061122283611a9a565b90506000816040518082805190602001908083835b60208310151561125c5780518252602082019150602081019050602083039250611237565b6001836020036101000a038019825116818451168082178552505050505050905001915050908152602001604051809103902060000160009054906101000a900460ff161515611314576040517f08c379a00000000000000000000000000000000000000000000000000000000081526004018080602001828103825260128152602001807f64696420646f6573206e6f74206578697374000000000000000000000000000081525060200191505060405180910390fd5b6000816040518082805190602001908083835b60208310151561134c5780518252602082019150602081019050602083039250611327565b6001836020036101000a03801982511681845116808217855250505050505090500191505090815260200160405180910390206002018054600181600116156101000203166002900480601f0160208091040260200160405190810160405280929190818152602001828054600181600116156101000203166002900480156114165780601f106113eb57610100808354040283529160200191611416565b820191906000526020600020905b8154815290600101906020018083116113f957829003601f168201915b5050505050915050919050565b60606040805190810160405280600781526020017f6469643a696f3a00000000000000000000000000000000000000000000000000815250611464336116ea565b6040516020018083805190602001908083835b60208310151561149c5780518252602082019150602081019050602083039250611477565b6001836020036101000a03801982511681845116808217855250505050505090500182805190602001908083835b6020831015156114ef57805182526020820191506020810190506020830392506114ca565b6001836020036101000a03801982511681845116808217855250505050505090500192505050604051602081830303815290604052905090565b600061153482611a9a565b6040516020018082805190602001908083835b60208310151561156c5780518252602082019150602081019050602083039250611547565b6001836020036101000a0380198251168184511680821785525050505050509050019150506040516020818303038152906040526040518082805190602001908083835b6020831015156115d557805182526020820191506020810190506020830392506115b0565b6001836020036101000a03801982511681845116808217855250505050505090500191505060405180910390206000191661160f84611a9a565b6040516020018082805190602001908083835b6020831015156116475780518252602082019150602081019050602083039250611622565b6001836020036101000a0380198251168184511680821785525050505050509050019150506040516020818303038152906040526040518082805190602001908083835b6020831015156116b0578051825260208201915060208101905060208303925061168b565b6001836020036101000a03801982511681845116808217855250505050505090500191505060405180910390206000191614905092915050565b6060600060608060008573ffffffffffffffffffffffffffffffffffffffff1660010293506040805190810160405280601081526020017f30313233343536373839616263646566000000000000000000000000000000008152509250602a6040519080825280601f01601f19166020018201604052801561177b5781602001602082028038833980820191505090505b5091507f30000000000000000000000000000000000000000000000000000000000000008260008151811015156117ae57fe5b9060200101907effffffffffffffffffffffffffffffffffffffffffffffffffffffffffffff1916908160001a9053507f780000000000000000000000000000000000000000000000000000000000000082600181518110151561180e57fe5b9060200101907effffffffffffffffffffffffffffffffffffffffffffffffffffffffffffff1916908160001a905350600090505b6014811015611a8e5782600485600c840160208110151561186057fe5b1a7f0100000000000000000000000000000000000000000000000000000000000000027effffffffffffffffffffffffffffffffffffffffffffffffffffffffffffff19169060020a90047f010000000000000000000000000000000000000000000000000000000000000090048151811015156118da57fe5b9060200101517f010000000000000000000000000000000000000000000000000000000000000090047f010000000000000000000000000000000000000000000000000000000000000002826002830260020181518110151561193957fe5b9060200101907effffffffffffffffffffffffffffffffffffffffffffffffffffffffffffff1916908160001a90535082600f7f01000000000000000000000000000000000000000000000000000000000000000285600c840160208110151561199f57fe5b1a7f010000000000000000000000000000000000000000000000000000000000000002167f010000000000000000000000000000000000000000000000000000000000000090048151811015156119f257fe5b9060200101517f010000000000000000000000000000000000000000000000000000000000000090047f0100000000000000000000000000000000000000000000000000000000000000028260028302600301815181101515611a5157fe5b9060200101907effffffffffffffffffffffffffffffffffffffffffffffffffffffffffffff1916908160001a9053508080600101915050611843565b81945050505050919050565b6060806060600084925082516040519080825280601f01601f191660200182016040528015611ad85781602001602082028038833980820191505090505b509150600090505b8251811015611dc15760417f0100000000000000000000000000000000000000000000000000000000000000028382815181101515611b1b57fe5b9060200101517f010000000000000000000000000000000000000000000000000000000000000090047f0100000000000000000000000000000000000000000000000000000000000000027effffffffffffffffffffffffffffffffffffffffffffffffffffffffffffff191610158015611c335750605a7f0100000000000000000000000000000000000000000000000000000000000000028382815181101515611bc357fe5b9060200101517f010000000000000000000000000000000000000000000000000000000000000090047f0100000000000000000000000000000000000000000000000000000000000000027effffffffffffffffffffffffffffffffffffffffffffffffffffffffffffff191611155b15611d1c5760208382815181101515611c4857fe5b9060200101517f010000000000000000000000000000000000000000000000000000000000000090047f0100000000000000000000000000000000000000000000000000000000000000027f01000000000000000000000000000000000000000000000000000000000000009004017f0100000000000000000000000000000000000000000000000000000000000000028282815181101515611ce757fe5b9060200101907effffffffffffffffffffffffffffffffffffffffffffffffffffffffffffff1916908160001a905350611db4565b8281815181101515611d2a57fe5b9060200101517f010000000000000000000000000000000000000000000000000000000000000090047f0100000000000000000000000000000000000000000000000000000000000000028282815181101515611d8357fe5b9060200101907effffffffffffffffffffffffffffffffffffffffffffffffffffffffffffff1916908160001a9053505b8080600101915050611ae0565b819350505050919050565b828054600181600116156101000203166002900490600052602060002090601f016020900481019282601f10611e0d57805160ff1916838001178555611e3b565b82800160010185558215611e3b579182015b82811115611e3a578251825591602001919060010190611e1f565b5b509050611e489190611ecc565b5090565b828054600181600116156101000203166002900490600052602060002090601f016020900481019282601f10611e8d57805160ff1916838001178555611ebb565b82800160010185558215611ebb579182015b82811115611eba578251825591602001919060010190611e9f565b5b509050611ec89190611ecc565b5090565b611eee91905b80821115611eea576000816000905550600101611ed2565b5090565b905600a165627a7a72305820fffdeebdc84fc8d3d4ce076569e424b7e7cba2d9b83a0135513a915b9501586c0029",
  "source": "pragma solidity ^0.4.24;\n\nimport './SelfManagedDID.sol';\n\ncontract IoTeXDID is SelfManagedDID {\n    modifier onlyDIDOwner(string didInput) {\n        string memory didString = generateDIDString();\n        if (bytes(didInput).length > 0) {\n            require(compareStrings(didInput, didString), \"caller does not own the given did\");\n        }\n        require(dids[didString].exist, \"caller is not a did owner\");\n        _;\n    }\n\n    string constant didPrefix = \"did:io:\";\n    struct DID {\n        bool exist;\n        bytes32 hash;\n        string uri;\n    }\n    mapping(string => DID) dids;\n\n    event CreateDID(string indexed id, string didString);\n    event UpdateHash(string indexed didString, bytes32 hash);\n    event UpdateURI(string indexed didString, string uri);\n    event DeleteDID(string indexed didString);\n\n    function createDID(string id, bytes32 hash, string uri) public {\n        if (bytes(id).length > 0) {\n            require(compareStrings(id, addrToString(msg.sender)), \"id does not match creator\");\n        }\n        string memory resultDID = generateDIDString();\n        require(!dids[resultDID].exist, \"did already exists\");\n        dids[resultDID] = DID(true, hash, uri);\n\n        emit CreateDID(toLower(addrToString(msg.sender)), resultDID);\n    }\n\n    function updateHash(string did, bytes32 hash) public onlyDIDOwner(did) {\n        dids[generateDIDString()].hash = hash;\n        emit UpdateHash(generateDIDString(), hash);\n    }\n\n    function updateURI(string did, string uri) public onlyDIDOwner(did) {\n        dids[generateDIDString()].uri = uri;\n        emit UpdateURI(generateDIDString(), uri);\n    }\n\n    function deleteDID(string did) public onlyDIDOwner(did) {\n        dids[generateDIDString()].exist = false;\n        emit DeleteDID(generateDIDString());\n    }\n\n    function getHash(string did) public view returns (bytes32) {\n        string memory didString = toLower(did);\n        require(dids[didString].exist, \"did does not exist\");\n        return dids[didString].hash;\n    }\n\n    function getURI(string did) public view returns (string) {\n        string memory didString = toLower(did);\n        require(dids[didString].exist, \"did does not exist\");\n        return dids[didString].uri;\n    }\n\n    function generateDIDString() private view returns (string) {\n        return string(abi.encodePacked(didPrefix, addrToString(msg.sender)));\n    }\n\n    function addrToString(address _addr) internal pure returns(string) {\n        bytes32 value = bytes32(uint256(_addr));\n        bytes memory alphabet = \"0123456789abcdef\";\n\n        bytes memory str = new bytes(42);\n        str[0] = '0';\n        str[1] = 'x';\n        for (uint i = 0; i < 20; i++) {\n            str[2+i*2] = alphabet[uint(value[i + 12] >> 4)];\n            str[3+i*2] = alphabet[uint(value[i + 12] & 0x0f)];\n        }\n        return string(str);\n    }\n\n    function compareStrings (string a, string b) internal pure returns (bool) {\n        return (keccak256(abi.encodePacked((toLower(a)))) == keccak256(abi.encodePacked((toLower(b)))));\n    }\n\n    function toLower(string str) internal pure returns (string) {\n\t\tbytes memory bStr = bytes(str);\n\t\tbytes memory bLower = new bytes(bStr.length);\n\t\tfor (uint i = 0; i < bStr.length; i++) {\n\t\t\tif ((bStr[i] >= 65) && (bStr[i] <= 90)) {\n\t\t\t\tbLower[i] = bytes1(int(bStr[i]) + 32);\n\t\t\t} else {\n\t\t\t\tbLower[i] = bStr[i];\n\t\t\t}\n\t\t}\n\t\treturn string(bLower);\n\t}\n}\n",
  "sourcePath": "/Users/zhefengli/go/src/github.com/iotexproject/iotex-DID/smartcontracts/contracts/IoTeXDID.sol",
  "compiler": {
    "name": "solc",
    "version": "0.4.24+commit.e67f0147.Emscripten.clang"
  },
  "schemaVersion": "3.0.11",
  "updatedAt": "2019-09-18T18:15:15.855Z",
  "devdoc": {
    "methods": {}
  },
  "userdoc": {
    "methods": {}
  }
}