{
  "contractName": "MockDeviceDID",
  "abi": [
    {
      "constant": false,
      "inputs": [
        {
          "name": "addrs",
          "type": "address[]"
        }
      ],
      "name": "removeAddressesFromWhitelist",
      "outputs": [
        {
          "name": "success",
          "type": "bool"
        }
      ],
      "payable": false,
      "stateMutability": "nonpayable",
      "type": "function"
    },
    {
      "constant": false,
      "inputs": [
        {
          "name": "addr",
          "type": "address"
        }
      ],
      "name": "removeAddressFromWhitelist",
      "outputs": [
        {
          "name": "success",
          "type": "bool"
        }
      ],
      "payable": false,
      "stateMutability": "nonpayable",
      "type": "function"
    },
    {
      "constant": true,
      "inputs": [],
      "name": "cloudServiceAddr",
      "outputs": [
        {
          "name": "",
          "type": "address"
        }
      ],
      "payable": false,
      "stateMutability": "view",
      "type": "function"
    },
    {
      "constant": false,
      "inputs": [
        {
          "name": "addr",
          "type": "address"
        }
      ],
      "name": "addAddressToWhitelist",
      "outputs": [
        {
          "name": "success",
          "type": "bool"
        }
      ],
      "payable": false,
      "stateMutability": "nonpayable",
      "type": "function"
    },
    {
      "constant": true,
      "inputs": [],
      "name": "owner",
      "outputs": [
        {
          "name": "",
          "type": "address"
        }
      ],
      "payable": false,
      "stateMutability": "view",
      "type": "function"
    },
    {
      "constant": true,
      "inputs": [
        {
          "name": "",
          "type": "address"
        }
      ],
      "name": "whitelist",
      "outputs": [
        {
          "name": "",
          "type": "bool"
        }
      ],
      "payable": false,
      "stateMutability": "view",
      "type": "function"
    },
    {
      "constant": false,
      "inputs": [
        {
          "name": "addrs",
          "type": "address[]"
        }
      ],
      "name": "addAddressesToWhitelist",
      "outputs": [
        {
          "name": "success",
          "type": "bool"
        }
      ],
      "payable": false,
      "stateMutability": "nonpayable",
      "type": "function"
    },
    {
      "constant": false,
      "inputs": [
        {
          "name": "newOwner",
          "type": "address"
        }
      ],
      "name": "transferOwnership",
      "outputs": [],
      "payable": false,
      "stateMutability": "nonpayable",
      "type": "function"
    },
    {
      "inputs": [
        {
          "name": "_cloudServiceAddr",
          "type": "address"
        }
      ],
      "payable": false,
      "stateMutability": "nonpayable",
      "type": "constructor"
    },
    {
      "anonymous": false,
      "inputs": [
        {
          "indexed": true,
          "name": "owner",
          "type": "address"
        },
        {
          "indexed": true,
          "name": "uuid",
          "type": "string"
        },
        {
          "indexed": false,
          "name": "didString",
          "type": "string"
        }
      ],
      "name": "CreateDID",
      "type": "event"
    },
    {
      "anonymous": false,
      "inputs": [
        {
          "indexed": true,
          "name": "didString",
          "type": "string"
        },
        {
          "indexed": false,
          "name": "hash",
          "type": "bytes32"
        }
      ],
      "name": "UpdateHash",
      "type": "event"
    },
    {
      "anonymous": false,
      "inputs": [
        {
          "indexed": true,
          "name": "didString",
          "type": "string"
        },
        {
          "indexed": false,
          "name": "uri",
          "type": "string"
        }
      ],
      "name": "UpdateURI",
      "type": "event"
    },
    {
      "anonymous": false,
      "inputs": [
        {
          "indexed": true,
          "name": "didString",
          "type": "string"
        }
      ],
      "name": "DeleteDID",
      "type": "event"
    },
    {
      "anonymous": false,
      "inputs": [
        {
          "indexed": false,
          "name": "addr",
          "type": "address"
        }
      ],
      "name": "WhitelistedAddressAdded",
      "type": "event"
    },
    {
      "anonymous": false,
      "inputs": [
        {
          "indexed": false,
          "name": "addr",
          "type": "address"
        }
      ],
      "name": "WhitelistedAddressRemoved",
      "type": "event"
    },
    {
      "anonymous": false,
      "inputs": [
        {
          "indexed": true,
          "name": "previousOwner",
          "type": "address"
        },
        {
          "indexed": true,
          "name": "newOwner",
          "type": "address"
        }
      ],
      "name": "OwnershipTransferred",
      "type": "event"
    },
    {
      "constant": false,
      "inputs": [
        {
          "name": "uuid",
          "type": "string"
        },
        {
          "name": "proof",
          "type": "bytes"
        },
        {
          "name": "hash",
          "type": "bytes32"
        },
        {
          "name": "uri",
          "type": "string"
        }
      ],
      "name": "createDID",
      "outputs": [],
      "payable": false,
      "stateMutability": "nonpayable",
      "type": "function"
    },
    {
      "constant": false,
      "inputs": [
        {
          "name": "uuid",
          "type": "string"
        },
        {
          "name": "proof",
          "type": "bytes"
        },
        {
          "name": "hash",
          "type": "bytes32"
        }
      ],
      "name": "updateHash",
      "outputs": [],
      "payable": false,
      "stateMutability": "nonpayable",
      "type": "function"
    },
    {
      "constant": false,
      "inputs": [
        {
          "name": "uuid",
          "type": "string"
        },
        {
          "name": "proof",
          "type": "bytes"
        },
        {
          "name": "uri",
          "type": "string"
        }
      ],
      "name": "updateURI",
      "outputs": [],
      "payable": false,
      "stateMutability": "nonpayable",
      "type": "function"
    },
    {
      "constant": false,
      "inputs": [
        {
          "name": "uuid",
          "type": "string"
        },
        {
          "name": "proof",
          "type": "bytes"
        }
      ],
      "name": "deleteDID",
      "outputs": [],
      "payable": false,
      "stateMutability": "nonpayable",
      "type": "function"
    },
    {
      "constant": false,
      "inputs": [
        {
          "name": "_cloudServiceAddr",
          "type": "address"
        }
      ],
      "name": "setCloudServiceAddr",
      "outputs": [],
      "payable": false,
      "stateMutability": "nonpayable",
      "type": "function"
    },
    {
      "constant": true,
      "inputs": [
        {
          "name": "did",
          "type": "string"
        }
      ],
      "name": "getHash",
      "outputs": [
        {
          "name": "",
          "type": "bytes32"
        }
      ],
      "payable": false,
      "stateMutability": "view",
      "type": "function"
    },
    {
      "constant": true,
      "inputs": [
        {
          "name": "did",
          "type": "string"
        }
      ],
      "name": "getURI",
      "outputs": [
        {
          "name": "",
          "type": "string"
        }
      ],
      "payable": false,
      "stateMutability": "view",
      "type": "function"
    }
  ],
  "bytecode": "0x60806040523480156200001157600080fd5b5060405160208062002b5f83398101806040528101908080519060200190929190505050336000806101000a81548173ffffffffffffffffffffffffffffffffffffffff021916908373ffffffffffffffffffffffffffffffffffffffff1602179055506200008f33620000d8640100000000026401000000009004565b5080600360006101000a81548173ffffffffffffffffffffffffffffffffffffffff021916908373ffffffffffffffffffffffffffffffffffffffff160217905550506200024e565b60008060009054906101000a900473ffffffffffffffffffffffffffffffffffffffff1673ffffffffffffffffffffffffffffffffffffffff163373ffffffffffffffffffffffffffffffffffffffff161415156200013657600080fd5b600160008373ffffffffffffffffffffffffffffffffffffffff1673ffffffffffffffffffffffffffffffffffffffff16815260200190815260200160002060009054906101000a900460ff161515620002495760018060008473ffffffffffffffffffffffffffffffffffffffff1673ffffffffffffffffffffffffffffffffffffffff16815260200190815260200160002060006101000a81548160ff0219169083151502179055507fd1bba68c128cc3f427e5831b3c6f99f480b6efa6b9e80c757768f6124158cc3f82604051808273ffffffffffffffffffffffffffffffffffffffff1673ffffffffffffffffffffffffffffffffffffffff16815260200191505060405180910390a1600190505b919050565b612901806200025e6000396000f3006080604052600436106100db576000357c0100000000000000000000000000000000000000000000000000000000900463ffffffff1680630da90997146100e0578063189a2772146101e357806324953eaa14610226578063286dd3f5146102a45780633262c418146102ff5780633dd02618146103ae5780635b6beeb91461040557806374990ef81461048a5780637b9417c8146105475780638da5cb5b146105a257806393ff5d3e146105f95780639b19251a146106db578063e2ec6ec314610736578063f2fde38b146107b4578063f818daea146107f7575b600080fd5b3480156100ec57600080fd5b506101e1600480360381019080803590602001908201803590602001908080601f0160208091040260200160405190810160405280939291908181526020018383808284378201915050505050509192919290803590602001908201803590602001908080601f01602080910402602001604051908101604052809392919081815260200183838082843782019150505050505091929192908035600019169060200190929190803590602001908201803590602001908080601f01602080910402602001604051908101604052809392919081815260200183838082843782019150505050505091929192905050506108ec565b005b3480156101ef57600080fd5b50610224600480360381019080803573ffffffffffffffffffffffffffffffffffffffff169060200190929190505050610bef565b005b34801561023257600080fd5b5061028a60048036038101908080359060200190820180359060200190808060200260200160405190810160405280939291908181526020018383602002808284378201915050505050509192919290505050610c8b565b604051808215151515815260200191505060405180910390f35b3480156102b057600080fd5b506102e5600480360381019080803573ffffffffffffffffffffffffffffffffffffffff169060200190929190505050610d34565b604051808215151515815260200191505060405180910390f35b34801561030b57600080fd5b506103ac600480360381019080803590602001908201803590602001908080601f0160208091040260200160405190810160405280939291908181526020018383808284378201915050505050509192919290803590602001908201803590602001908080601f0160208091040260200160405190810160405280939291908181526020018383808284378201915050505050509192919290505050610ea8565b005b3480156103ba57600080fd5b506103c36110dc565b604051808273ffffffffffffffffffffffffffffffffffffffff1673ffffffffffffffffffffffffffffffffffffffff16815260200191505060405180910390f35b34801561041157600080fd5b5061046c600480360381019080803590602001908201803590602001908080601f0160208091040260200160405190810160405280939291908181526020018383808284378201915050505050509192919290505050611102565b60405180826000191660001916815260200191505060405180910390f35b34801561049657600080fd5b50610545600480360381019080803590602001908201803590602001908080601f0160208091040260200160405190810160405280939291908181526020018383808284378201915050505050509192919290803590602001908201803590602001908080601f0160208091040260200160405190810160405280939291908181526020018383808284378201915050505050509192919290803560001916906020019092919050505061126a565b005b34801561055357600080fd5b50610588600480360381019080803573ffffffffffffffffffffffffffffffffffffffff1690602001909291905050506114a2565b604051808215151515815260200191505060405180910390f35b3480156105ae57600080fd5b506105b7611616565b604051808273ffffffffffffffffffffffffffffffffffffffff1673ffffffffffffffffffffffffffffffffffffffff16815260200191505060405180910390f35b34801561060557600080fd5b50610660600480360381019080803590602001908201803590602001908080601f016020809104026020016040519081016040528093929190818152602001838380828437820191505050505050919291929050505061163b565b6040518080602001828103825283818151815260200191508051906020019080838360005b838110156106a0578082015181840152602081019050610685565b50505050905090810190601f1680156106cd5780820380516001836020036101000a031916815260200191505b509250505060405180910390f35b3480156106e757600080fd5b5061071c600480360381019080803573ffffffffffffffffffffffffffffffffffffffff16906020019092919050505061183b565b604051808215151515815260200191505060405180910390f35b34801561074257600080fd5b5061079a6004803603810190808035906020019082018035906020019080806020026020016040519081016040528093929190818152602001838360200280828437820191505050505050919291929050505061185b565b604051808215151515815260200191505060405180910390f35b3480156107c057600080fd5b506107f5600480360381019080803573ffffffffffffffffffffffffffffffffffffffff169060200190929190505050611904565b005b34801561080357600080fd5b506108ea600480360381019080803590602001908201803590602001908080601f0160208091040260200160405190810160405280939291908181526020018383808284378201915050505050509192919290803590602001908201803590602001908080601f0160208091040260200160405190810160405280939291908181526020018383808284378201915050505050509192919290803590602001908201803590602001908080601f0160208091040260200160405190810160405280939291908181526020018383808284378201915050505050509192919290505050611a59565b005b60606108f88585611cfa565b61090185611ef3565b90506002816040518082805190602001908083835b60208310151561093b5780518252602082019150602081019050602083039250610916565b6001836020036101000a038019825116818451168082178552505050505050905001915050908152602001604051809103902060000160009054906101000a900460ff161515156109f4576040517f08c379a00000000000000000000000000000000000000000000000000000000081526004018080602001828103825260128152602001807f64696420616c726561647920657869737473000000000000000000000000000081525060200191505060405180910390fd5b60606040519081016040528060011515815260200184600019168152602001838152506002826040518082805190602001908083835b602083101515610a4f5780518252602082019150602081019050602083039250610a2a565b6001836020036101000a038019825116818451168082178552505050505050905001915050908152602001604051809103902060008201518160000160006101000a81548160ff021916908315150217905550602082015181600101906000191690556040820151816002019080519060200190610ace9291906127b0565b50905050846040518082805190602001908083835b602083101515610b085780518252602082019150602081019050602083039250610ae3565b6001836020036101000a03801982511681845116808217855250505050505090500191505060405180910390203373ffffffffffffffffffffffffffffffffffffffff167fbd1f79c29acd7c36db42f8dc71901b32226dcb10d21e1596d74aabd378864f87836040518080602001828103825283818151815260200191508051906020019080838360005b83811015610bae578082015181840152602081019050610b93565b50505050905090810190601f168015610bdb5780820380516001836020036101000a031916815260200191505b509250505060405180910390a35050505050565b600160003373ffffffffffffffffffffffffffffffffffffffff1673ffffffffffffffffffffffffffffffffffffffff16815260200190815260200160002060009054906101000a900460ff161515610c4757600080fd5b80600360006101000a81548173ffffffffffffffffffffffffffffffffffffffff021916908373ffffffffffffffffffffffffffffffffffffffff16021790555050565b6000806000809054906101000a900473ffffffffffffffffffffffffffffffffffffffff1673ffffffffffffffffffffffffffffffffffffffff163373ffffffffffffffffffffffffffffffffffffffff16141515610ce957600080fd5b600090505b8251811015610d2e57610d178382815181101515610d0857fe5b90602001906020020151610d34565b15610d2157600191505b8080600101915050610cee565b50919050565b60008060009054906101000a900473ffffffffffffffffffffffffffffffffffffffff1673ffffffffffffffffffffffffffffffffffffffff163373ffffffffffffffffffffffffffffffffffffffff16141515610d9157600080fd5b600160008373ffffffffffffffffffffffffffffffffffffffff1673ffffffffffffffffffffffffffffffffffffffff16815260200190815260200160002060009054906101000a900460ff1615610ea3576000600160008473ffffffffffffffffffffffffffffffffffffffff1673ffffffffffffffffffffffffffffffffffffffff16815260200190815260200160002060006101000a81548160ff0219169083151502179055507ff1abf01a1043b7c244d128e8595cf0c1d10743b022b03a02dffd8ca3bf729f5a82604051808273ffffffffffffffffffffffffffffffffffffffff1673ffffffffffffffffffffffffffffffffffffffff16815260200191505060405180910390a1600190505b919050565b606082826060610eb783611ef3565b90506002816040518082805190602001908083835b602083101515610ef15780518252602082019150602081019050602083039250610ecc565b6001836020036101000a038019825116818451168082178552505050505050905001915050908152602001604051809103902060000160009054906101000a900460ff161515610fa9576040517f08c379a00000000000000000000000000000000000000000000000000000000081526004018080602001828103825260128152602001807f64696420646f6573206e6f74206578697374000000000000000000000000000081525060200191505060405180910390fd5b610fb38383611cfa565b610fbc86611ef3565b935060006002856040518082805190602001908083835b602083101515610ff85780518252602082019150602081019050602083039250610fd3565b6001836020036101000a038019825116818451168082178552505050505050905001915050908152602001604051809103902060000160006101000a81548160ff021916908315150217905550836040518082805190602001908083835b60208310151561107b5780518252602082019150602081019050602083039250611056565b6001836020036101000a03801982511681845116808217855250505050505090500191505060405180910390207ff8910781c5d425c8a634b0a60a6567ef96cae8b2aa97b0db44389fff2bbcc64f60405160405180910390a2505050505050565b600360009054906101000a900473ffffffffffffffffffffffffffffffffffffffff1681565b60006002826040518082805190602001908083835b60208310151561113c5780518252602082019150602081019050602083039250611117565b6001836020036101000a038019825116818451168082178552505050505050905001915050908152602001604051809103902060000160009054906101000a900460ff1615156111f4576040517f08c379a00000000000000000000000000000000000000000000000000000000081526004018080602001828103825260128152602001807f64696420646f6573206e6f74206578697374000000000000000000000000000081525060200191505060405180910390fd5b6002826040518082805190602001908083835b60208310151561122c5780518252602082019150602081019050602083039250611207565b6001836020036101000a0380198251168184511680821785525050505050509050019150509081526020016040518091039020600101549050919050565b60608383606061127983611ef3565b90506002816040518082805190602001908083835b6020831015156112b3578051825260208201915060208101905060208303925061128e565b6001836020036101000a038019825116818451168082178552505050505050905001915050908152602001604051809103902060000160009054906101000a900460ff16151561136b576040517f08c379a00000000000000000000000000000000000000000000000000000000081526004018080602001828103825260128152602001807f64696420646f6573206e6f74206578697374000000000000000000000000000081525060200191505060405180910390fd5b6113758383611cfa565b61137e87611ef3565b9350846002856040518082805190602001908083835b6020831015156113b95780518252602082019150602081019050602083039250611394565b6001836020036101000a03801982511681845116808217855250505050505090500191505090815260200160405180910390206001018160001916905550836040518082805190602001908083835b60208310151561142d5780518252602082019150602081019050602083039250611408565b6001836020036101000a03801982511681845116808217855250505050505090500191505060405180910390207fad2d38b24c03f1f0db04b9345ca745dcf8904f27f8977599ec4769743d5e898d8660405180826000191660001916815260200191505060405180910390a250505050505050565b60008060009054906101000a900473ffffffffffffffffffffffffffffffffffffffff1673ffffffffffffffffffffffffffffffffffffffff163373ffffffffffffffffffffffffffffffffffffffff161415156114ff57600080fd5b600160008373ffffffffffffffffffffffffffffffffffffffff1673ffffffffffffffffffffffffffffffffffffffff16815260200190815260200160002060009054906101000a900460ff1615156116115760018060008473ffffffffffffffffffffffffffffffffffffffff1673ffffffffffffffffffffffffffffffffffffffff16815260200190815260200160002060006101000a81548160ff0219169083151502179055507fd1bba68c128cc3f427e5831b3c6f99f480b6efa6b9e80c757768f6124158cc3f82604051808273ffffffffffffffffffffffffffffffffffffffff1673ffffffffffffffffffffffffffffffffffffffff16815260200191505060405180910390a1600190505b919050565b6000809054906101000a900473ffffffffffffffffffffffffffffffffffffffff1681565b60606002826040518082805190602001908083835b6020831015156116755780518252602082019150602081019050602083039250611650565b6001836020036101000a038019825116818451168082178552505050505050905001915050908152602001604051809103902060000160009054906101000a900460ff16151561172d576040517f08c379a00000000000000000000000000000000000000000000000000000000081526004018080602001828103825260128152602001807f64696420646f6573206e6f74206578697374000000000000000000000000000081525060200191505060405180910390fd5b6002826040518082805190602001908083835b6020831015156117655780518252602082019150602081019050602083039250611740565b6001836020036101000a03801982511681845116808217855250505050505090500191505090815260200160405180910390206002018054600181600116156101000203166002900480601f01602080910402602001604051908101604052809291908181526020018280546001816001161561010002031660029004801561182f5780601f106118045761010080835404028352916020019161182f565b820191906000526020600020905b81548152906001019060200180831161181257829003601f168201915b50505050509050919050565b60016020528060005260406000206000915054906101000a900460ff1681565b6000806000809054906101000a900473ffffffffffffffffffffffffffffffffffffffff1673ffffffffffffffffffffffffffffffffffffffff163373ffffffffffffffffffffffffffffffffffffffff161415156118b957600080fd5b600090505b82518110156118fe576118e783828151811015156118d857fe5b906020019060200201516114a2565b156118f157600191505b80806001019150506118be565b50919050565b6000809054906101000a900473ffffffffffffffffffffffffffffffffffffffff1673ffffffffffffffffffffffffffffffffffffffff163373ffffffffffffffffffffffffffffffffffffffff1614151561195f57600080fd5b600073ffffffffffffffffffffffffffffffffffffffff168173ffffffffffffffffffffffffffffffffffffffff161415151561199b57600080fd5b8073ffffffffffffffffffffffffffffffffffffffff166000809054906101000a900473ffffffffffffffffffffffffffffffffffffffff1673ffffffffffffffffffffffffffffffffffffffff167f8be0079c531659141344cd1fd0a4f28419497f9722a3daafe3b4186f6b6457e060405160405180910390a3806000806101000a81548173ffffffffffffffffffffffffffffffffffffffff021916908373ffffffffffffffffffffffffffffffffffffffff16021790555050565b606083836060611a6883611ef3565b90506002816040518082805190602001908083835b602083101515611aa25780518252602082019150602081019050602083039250611a7d565b6001836020036101000a038019825116818451168082178552505050505050905001915050908152602001604051809103902060000160009054906101000a900460ff161515611b5a576040517f08c379a00000000000000000000000000000000000000000000000000000000081526004018080602001828103825260128152602001807f64696420646f6573206e6f74206578697374000000000000000000000000000081525060200191505060405180910390fd5b611b648383611cfa565b611b6d87611ef3565b9350846002856040518082805190602001908083835b602083101515611ba85780518252602082019150602081019050602083039250611b83565b6001836020036101000a03801982511681845116808217855250505050505090500191505090815260200160405180910390206002019080519060200190611bf1929190612830565b50836040518082805190602001908083835b602083101515611c285780518252602082019150602081019050602083039250611c03565b6001836020036101000a03801982511681845116808217855250505050505090500191505060405180910390207fa55ea16d9a68fded3c5b007d1fbba6ed1524d9354d44c66bcc54c721108586c4866040518080602001828103825283818151815260200191508051906020019080838360005b83811015611cb7578082015181840152602081019050611c9c565b50505050905090810190601f168015611ce45780820380516001836020036101000a031916815260200191505b509250505060405180910390a250505050505050565b6060611d0533611ff3565b8360405160200180807f4920617574686f72697a65000000000000000000000000000000000000000000815250600b0183805190602001908083835b602083101515611d665780518252602082019150602081019050602083039250611d41565b6001836020036101000a038019825116818451168082178552505050505050905001807f20746f2072656769737465722000000000000000000000000000000000000000815250600d0182805190602001908083835b602083101515611de15780518252602082019150602081019050602083039250611dbc565b6001836020036101000a038019825116818451168082178552505050505050905001925050506040516020818303038152906040529050600360009054906101000a900473ffffffffffffffffffffffffffffffffffffffff1673ffffffffffffffffffffffffffffffffffffffff16611e63611e5d83612403565b84612561565b73ffffffffffffffffffffffffffffffffffffffff16141515611eee576040517f08c379a000000000000000000000000000000000000000000000000000000000815260040180806020018281038252600d8152602001807f696e76616c69642070726f6f660000000000000000000000000000000000000081525060200191505060405180910390fd5b505050565b60606040805190810160405280600c81526020017f6469643a696f3a6d6f636b3a0000000000000000000000000000000000000000815250826040516020018083805190602001908083835b602083101515611f645780518252602082019150602081019050602083039250611f3f565b6001836020036101000a03801982511681845116808217855250505050505090500182805190602001908083835b602083101515611fb75780518252602082019150602081019050602083039250611f92565b6001836020036101000a038019825116818451168082178552505050505050905001925050506040516020818303038152906040529050919050565b6060600060608060008573ffffffffffffffffffffffffffffffffffffffff1660010293506040805190810160405280601081526020017f30313233343536373839616263646566000000000000000000000000000000008152509250602b6040519080825280601f01601f1916602001820160405280156120845781602001602082028038833980820191505090505b5091507f20000000000000000000000000000000000000000000000000000000000000008260008151811015156120b757fe5b9060200101907effffffffffffffffffffffffffffffffffffffffffffffffffffffffffffff1916908160001a9053507f300000000000000000000000000000000000000000000000000000000000000082600181518110151561211757fe5b9060200101907effffffffffffffffffffffffffffffffffffffffffffffffffffffffffffff1916908160001a9053507f780000000000000000000000000000000000000000000000000000000000000082600281518110151561217757fe5b9060200101907effffffffffffffffffffffffffffffffffffffffffffffffffffffffffffff1916908160001a905350600090505b60148110156123f75782600485600c84016020811015156121c957fe5b1a7f0100000000000000000000000000000000000000000000000000000000000000027effffffffffffffffffffffffffffffffffffffffffffffffffffffffffffff19169060020a90047f0100000000000000000000000000000000000000000000000000000000000000900481518110151561224357fe5b9060200101517f010000000000000000000000000000000000000000000000000000000000000090047f01000000000000000000000000000000000000000000000000000000000000000282600283026003018151811015156122a257fe5b9060200101907effffffffffffffffffffffffffffffffffffffffffffffffffffffffffffff1916908160001a90535082600f7f01000000000000000000000000000000000000000000000000000000000000000285600c840160208110151561230857fe5b1a7f010000000000000000000000000000000000000000000000000000000000000002167f0100000000000000000000000000000000000000000000000000000000000000900481518110151561235b57fe5b9060200101517f010000000000000000000000000000000000000000000000000000000000000090047f01000000000000000000000000000000000000000000000000000000000000000282600283026004018151811015156123ba57fe5b9060200101907effffffffffffffffffffffffffffffffffffffffffffffffffffffffffffff1916908160001a90535080806001019150506121ac565b81945050505050919050565b600061240f8251612659565b8260405160200180807f19457468657265756d205369676e6564204d6573736167653a0a000000000000815250601a0183805190602001908083835b602083101515612470578051825260208201915060208101905060208303925061244b565b6001836020036101000a03801982511681845116808217855250505050505090500182805190602001908083835b6020831015156124c3578051825260208201915060208101905060208303925061249e565b6001836020036101000a038019825116818451168082178552505050505050905001925050506040516020818303038152906040526040518082805190602001908083835b60208310151561252d5780518252602082019150602081019050602083039250612508565b6001836020036101000a03801982511681845116808217855250505050505090500191505060405180910390209050919050565b6000806000806041855114151561257b5760009350612650565b6020850151925060408501519150606085015160001a9050601b8160ff1610156125a657601b810190505b601b8160ff16141580156125be5750601c8160ff1614155b156125cc5760009350612650565b600186828585604051600081526020016040526040518085600019166000191681526020018460ff1660ff1681526020018360001916600019168152602001826000191660001916815260200194505050505060206040516020810390808403906000865af1158015612643573d6000803e3d6000fd5b5050506020604051035193505b50505092915050565b606060008060606000808614156126a7576040805190810160405280600181526020017f300000000000000000000000000000000000000000000000000000000000000081525094506127a7565b8593505b6000841415156126d1578280600101935050600a848115156126c957fe5b0493506126ab565b826040519080825280601f01601f1916602001820160405280156127045781602001602082028038833980820191505090505b5091506001830390505b6000861415156127a357600a8681151561272457fe5b066030017f01000000000000000000000000000000000000000000000000000000000000000282828060019003935081518110151561275f57fe5b9060200101907effffffffffffffffffffffffffffffffffffffffffffffffffffffffffffff1916908160001a905350600a8681151561279b57fe5b04955061270e565b8194505b50505050919050565b828054600181600116156101000203166002900490600052602060002090601f016020900481019282601f106127f157805160ff191683800117855561281f565b8280016001018555821561281f579182015b8281111561281e578251825591602001919060010190612803565b5b50905061282c91906128b0565b5090565b828054600181600116156101000203166002900490600052602060002090601f016020900481019282601f1061287157805160ff191683800117855561289f565b8280016001018555821561289f579182015b8281111561289e578251825591602001919060010190612883565b5b5090506128ac91906128b0565b5090565b6128d291905b808211156128ce5760008160009055506001016128b6565b5090565b905600a165627a7a723058207e5ce7d570172be512a68067d1eee7767e2953892086f1d70c9712de24df0deb0029",
  "source": "pragma solidity ^0.4.24;\n\nimport './SelfManagedDeviceDID.sol';\nimport './ownership/Whitelist.sol';\n\ncontract MockDeviceDID is SelfManagedDeviceDID, Whitelist {\n    modifier onlyDeviceOwner(string uuid, bytes proof) {\n        string memory didString = generateDIDString(uuid);\n        require(dids[didString].exist, \"did does not exist\");\n        verifyProof(uuid, proof);\n        _;\n    }\n\n    string constant didPrefix = \"did:io:mock:\";\n    struct DID {\n        bool exist;\n        bytes32 hash;\n        string uri;\n    }\n    mapping(string => DID) dids;\n\n    address public cloudServiceAddr;\n\n    event CreateDID(address indexed owner, string indexed uuid, string didString);\n    event UpdateHash(string indexed didString, bytes32 hash);\n    event UpdateURI(string indexed didString, string uri);\n    event DeleteDID(string indexed didString);\n\n    constructor(address _cloudServiceAddr) public {\n        addAddressToWhitelist(msg.sender);\n        cloudServiceAddr = _cloudServiceAddr;\n    }\n\n    function createDID(string uuid, bytes proof, bytes32 hash, string uri) public {\n        verifyProof(uuid, proof);\n        string memory resultDID = generateDIDString(uuid);\n        require(!dids[resultDID].exist, \"did already exists\");\n        dids[resultDID] = DID(true, hash, uri);\n\n        emit CreateDID(msg.sender, uuid, resultDID);\n    }\n\n    function updateHash(string uuid, bytes proof, bytes32 hash) public onlyDeviceOwner(uuid, proof) {\n        string memory did = generateDIDString(uuid);\n        dids[did].hash = hash;\n        emit UpdateHash(did, hash);\n    }\n\n    function updateURI(string uuid, bytes proof, string uri) public onlyDeviceOwner(uuid, proof) {\n        string memory did = generateDIDString(uuid);\n        dids[did].uri = uri;\n        emit UpdateURI(did, uri);\n    }\n\n    function deleteDID(string uuid, bytes proof) public onlyDeviceOwner(uuid, proof) {\n        string memory did = generateDIDString(uuid);\n        dids[did].exist = false;\n        emit DeleteDID(did);\n    }\n\n    function setCloudServiceAddr(address _cloudServiceAddr) public onlyWhitelisted {\n        cloudServiceAddr = _cloudServiceAddr;\n    }\n\n    function getHash(string did) public view returns (bytes32) {\n        require(dids[did].exist, \"did does not exist\");\n        return dids[did].hash;\n    }\n\n    function getURI(string did) public view returns (string) {\n        require(dids[did].exist, \"did does not exist\");\n        return dids[did].uri;\n    }\n\n    function verifyProof(string uuid, bytes proof) internal view {\n         bytes memory message = abi.encodePacked(\"I authorize\", addrToString(msg.sender), \" to register \", uuid);\n         require(recover(toEthPersonalSignedMessageHash(message), proof) == cloudServiceAddr, \"invalid proof\");\n    }\n\n    function recover(bytes32 hash, bytes signature)\n        internal\n        pure\n        returns (address)\n    {\n        bytes32 r;\n        bytes32 s;\n        uint8 v;\n        // Check the signature length\n        if (signature.length != 65) {\n            return (address(0));\n        }\n        // Divide the signature in r, s and v variables with inline assembly.\n        assembly {\n            r := mload(add(signature, 0x20))\n            s := mload(add(signature, 0x40))\n            v := byte(0, mload(add(signature, 0x60)))\n        }\n        // Version of signature should be 27 or 28, but 0 and 1 are also possible versions\n        if (v < 27) {\n            v += 27;\n        }\n        // If the version is correct return the signer address\n        if (v != 27 && v != 28) {\n            return (address(0));\n        }\n        return ecrecover(hash, v, r, s);\n    }\n\n    function generateDIDString(string uuid) private view returns (string) {\n        return string(abi.encodePacked(didPrefix, uuid));\n    }\n\n    function uint2str(uint i) internal pure returns (string) {\n        if (i == 0) {\n            return \"0\";\n        }\n        uint j = i;\n        uint length;\n        while (j != 0){\n            length++;\n            j /= 10;\n        }\n        bytes memory b = new bytes(length);\n        uint k = length - 1;\n        while (i != 0){\n            b[k--] = byte(48 + i % 10);\n            i /= 10;\n        }\n        return string(b);\n    }\n\n    function addrToString(address _addr) internal pure returns(string) {\n        bytes32 value = bytes32(uint256(_addr));\n        bytes memory alphabet = \"0123456789abcdef\";\n\n        bytes memory str = new bytes(43);\n        str[0] = ' ';\n        str[1] = '0';\n        str[2] = 'x';\n        for (uint i = 0; i < 20; i++) {\n            str[3+i*2] = alphabet[uint(value[i + 12] >> 4)];\n            str[4+i*2] = alphabet[uint(value[i + 12] & 0x0f)];\n        }\n        return string(str);\n    }\n\n    function toEthPersonalSignedMessageHash(bytes _msg) internal pure returns (bytes32) {\n        return keccak256(abi.encodePacked(\"\\x19Ethereum Signed Message:\\n\", uint2str(_msg.length), _msg));\n    }\n}",
  "sourcePath": "/Users/zhefengli/go/src/github.com/iotexproject/iotex-DID/smartcontracts/contracts/MockDeviceDID.sol",
  "compiler": {
    "name": "solc",
    "version": "0.4.24+commit.e67f0147.Emscripten.clang"
  },
  "schemaVersion": "3.0.11",
  "updatedAt": "2019-11-01T23:56:59.386Z",
  "devdoc": {
    "methods": {
      "addAddressToWhitelist(address)": {
        "details": "add an address to the whitelist",
        "params": {
          "addr": "address"
        },
        "return": "true if the address was added to the whitelist, false if the address was already in the whitelist"
      },
      "addAddressesToWhitelist(address[])": {
        "details": "add addresses to the whitelist",
        "params": {
          "addrs": "addresses"
        },
        "return": "true if at least one address was added to the whitelist, false if all addresses were already in the whitelist"
      },
      "removeAddressFromWhitelist(address)": {
        "details": "remove an address from the whitelist",
        "params": {
          "addr": "address"
        },
        "return": "true if the address was removed from the whitelist, false if the address wasn't in the whitelist in the first place"
      },
      "removeAddressesFromWhitelist(address[])": {
        "details": "remove addresses from the whitelist",
        "params": {
          "addrs": "addresses"
        },
        "return": "true if at least one address was removed from the whitelist, false if all addresses weren't in the whitelist in the first place"
      },
      "transferOwnership(address)": {
        "details": "Allows the current owner to transfer control of the contract to a newOwner.",
        "params": {
          "newOwner": "The address to transfer ownership to."
        }
      }
    }
  },
  "userdoc": {
    "methods": {}
  }
}