{
  "contractName": "URIGenerator",
  "abi": [
    {
      "constant": false,
      "inputs": [
        {
          "name": "uuid",
          "type": "string"
        }
      ],
      "name": "generate",
      "outputs": [
        {
          "name": "",
          "type": "string"
        }
      ],
      "payable": false,
      "stateMutability": "nonpayable",
      "type": "function"
    }
  ],
  "bytecode": "0x608060405234801561001057600080fd5b506101b9806100206000396000f300608060405260043610610041576000357c0100000000000000000000000000000000000000000000000000000000900463ffffffff168063c3d670fe14610046575b600080fd5b34801561005257600080fd5b506100ad600480360381019080803590602001908201803590602001908080601f0160208091040260200160405190810160405280939291908181526020018383808284378201915050505050509192919290505050610128565b6040518080602001828103825283818151815260200191508051906020019080838360005b838110156100ed5780820151818401526020810190506100d2565b50505050905090810190601f16801561011a5780820380516001836020036101000a031916815260200191505b509250505060405180910390f35b60608060405190810160405280602c81526020017f726f6f743a48616e797571696e67393940746370283132372e302e302e313a3381526020017f333036292f74657374444944000000000000000000000000000000000000000081525090509190505600a165627a7a723058202f84000a991ffd73fa4bfd4fbb4c37d678cc1d112fdb2ece6c0be00b301b7dbb0029",
  "source": "pragma solidity ^0.4.24;\n\n\ncontract URIGenerator{\n\n    function generate(string uuid) public returns (string) {\n        return \"root:Hanyuqing99@tcp(127.0.0.1:3306)/testDID\";\n    }\n\n}\n/*\n{\n\t\"linkReferences\": {},\n\t\"object\": \"608060405234801561001057600080fd5b506101b9806100206000396000f300608060405260043610610041576000357c0100000000000000000000000000000000000000000000000000000000900463ffffffff1680636450a32214610046575b600080fd5b34801561005257600080fd5b506100ad600480360381019080803590602001908201803590602001908080601f0160208091040260200160405190810160405280939291908181526020018383808284378201915050505050509192919290505050610128565b6040518080602001828103825283818151815260200191508051906020019080838360005b838110156100ed5780820151818401526020810190506100d2565b50505050905090810190601f16801561011a5780820380516001836020036101000a031916815260200191505b509250505060405180910390f35b60608060405190810160405280602c81526020017f726f6f743a48616e797571696e67393940746370283132372e302e302e313a3381526020017f333036292f74657374444944000000000000000000000000000000000000000081525090509190505600a165627a7a723058204f57ede2532f00a1fccdfc3ce5e4fcf4483336762fe220682b51394977fee96d0029\",\n\t\"opcodes\": \"PUSH1 0x80 PUSH1 0x40 MSTORE CALLVALUE DUP1 ISZERO PUSH2 0x10 JUMPI PUSH1 0x0 DUP1 REVERT JUMPDEST POP PUSH2 0x1B9 DUP1 PUSH2 0x20 PUSH1 0x0 CODECOPY PUSH1 0x0 RETURN STOP PUSH1 0x80 PUSH1 0x40 MSTORE PUSH1 0x4 CALLDATASIZE LT PUSH2 0x41 JUMPI PUSH1 0x0 CALLDATALOAD PUSH29 0x100000000000000000000000000000000000000000000000000000000 SWAP1 DIV PUSH4 0xFFFFFFFF AND DUP1 PUSH4 0x6450A322 EQ PUSH2 0x46 JUMPI JUMPDEST PUSH1 0x0 DUP1 REVERT JUMPDEST CALLVALUE DUP1 ISZERO PUSH2 0x52 JUMPI PUSH1 0x0 DUP1 REVERT JUMPDEST POP PUSH2 0xAD PUSH1 0x4 DUP1 CALLDATASIZE SUB DUP2 ADD SWAP1 DUP1 DUP1 CALLDATALOAD SWAP1 PUSH1 0x20 ADD SWAP1 DUP3 ADD DUP1 CALLDATALOAD SWAP1 PUSH1 0x20 ADD SWAP1 DUP1 DUP1 PUSH1 0x1F ADD PUSH1 0x20 DUP1 SWAP2 DIV MUL PUSH1 0x20 ADD PUSH1 0x40 MLOAD SWAP1 DUP2 ADD PUSH1 0x40 MSTORE DUP1 SWAP4 SWAP3 SWAP2 SWAP1 DUP2 DUP2 MSTORE PUSH1 0x20 ADD DUP4 DUP4 DUP1 DUP3 DUP5 CALLDATACOPY DUP3 ADD SWAP2 POP POP POP POP POP POP SWAP2 SWAP3 SWAP2 SWAP3 SWAP1 POP POP POP PUSH2 0x128 JUMP JUMPDEST PUSH1 0x40 MLOAD DUP1 DUP1 PUSH1 0x20 ADD DUP3 DUP2 SUB DUP3 MSTORE DUP4 DUP2 DUP2 MLOAD DUP2 MSTORE PUSH1 0x20 ADD SWAP2 POP DUP1 MLOAD SWAP1 PUSH1 0x20 ADD SWAP1 DUP1 DUP4 DUP4 PUSH1 0x0 JUMPDEST DUP4 DUP2 LT ISZERO PUSH2 0xED JUMPI DUP1 DUP3 ADD MLOAD DUP2 DUP5 ADD MSTORE PUSH1 0x20 DUP2 ADD SWAP1 POP PUSH2 0xD2 JUMP JUMPDEST POP POP POP POP SWAP1 POP SWAP1 DUP2 ADD SWAP1 PUSH1 0x1F AND DUP1 ISZERO PUSH2 0x11A JUMPI DUP1 DUP3 SUB DUP1 MLOAD PUSH1 0x1 DUP4 PUSH1 0x20 SUB PUSH2 0x100 EXP SUB NOT AND DUP2 MSTORE PUSH1 0x20 ADD SWAP2 POP JUMPDEST POP SWAP3 POP POP POP PUSH1 0x40 MLOAD DUP1 SWAP2 SUB SWAP1 RETURN JUMPDEST PUSH1 0x60 DUP1 PUSH1 0x40 MLOAD SWAP1 DUP2 ADD PUSH1 0x40 MSTORE DUP1 PUSH1 0x2C DUP2 MSTORE PUSH1 0x20 ADD PUSH32 0x726F6F743A48616E797571696E67393940746370283132372E302E302E313A33 DUP2 MSTORE PUSH1 0x20 ADD PUSH32 0x333036292F746573744449440000000000000000000000000000000000000000 DUP2 MSTORE POP SWAP1 POP SWAP2 SWAP1 POP JUMP STOP LOG1 PUSH6 0x627A7A723058 KECCAK256 0x4f JUMPI 0xed 0xe2 MSTORE8 0x2f STOP LOG1 0xfc 0xcd 0xfc EXTCODECOPY 0xe5 0xe4 0xfc DELEGATECALL 0x48 CALLER CALLDATASIZE PUSH23 0x2FE220682B51394977FEE96D0029000000000000000000 \",\n\t\"sourceMap\": \"27:156:0:-;;;;8:9:-1;5:2;;;30:1;27;20:12;5:2;27:156:0;;;;;;;\"\n}\n[\n\t{\n\t\t\"constant\": false,\n\t\t\"inputs\": [\n\t\t\t{\n\t\t\t\t\"name\": \"meta\",\n\t\t\t\t\"type\": \"bytes\"\n\t\t\t}\n\t\t],\n\t\t\"name\": \"generate\",\n\t\t\"outputs\": [\n\t\t\t{\n\t\t\t\t\"name\": \"uri\",\n\t\t\t\t\"type\": \"string\"\n\t\t\t}\n\t\t],\n\t\t\"payable\": false,\n\t\t\"stateMutability\": \"nonpayable\",\n\t\t\"type\": \"function\"\n\t}\n]\n*/",
  "sourcePath": "/Users/zhefengli/go/src/github.com/iotexproject/iotex-DID/smartcontracts/contracts/URIGenerator.sol",
  "compiler": {
    "name": "solc",
    "version": "0.4.24+commit.e67f0147.Emscripten.clang"
  },
  "schemaVersion": "3.0.11",
  "updatedAt": "2019-08-26T22:46:36.186Z",
  "devdoc": {
    "methods": {}
  },
  "userdoc": {
    "methods": {}
  }
}